:020000040801F1
:1000000028FA0020DD0101088FB70108ED940108EE
:10001000C1AF01084F200108BDD001080000000059
:100020000000000000000000000000004501010881
:10003000B9430108000000008901010815C9010841
:10004000F7010108F7010108F7010108B1B901083A
:10005000F7010108F7010108F7010108F70101089C
:10006000F7010108F7010108F7010108F70101088C
:10007000F7010108F7010108F7010108F70101087C
:10008000F7010108F7010108F7010108F70101086C
:10009000F7010108F7010108F7010108F70101085C
:1000A000F7010108E5C90108F7010108F701010896
:1000B00039CA010845CA0108F7010108F70101081A
:1000C000F7010108F7010108F7010108F70101082C
:1000D000F701010815D00108F701010869D00108EE
:1000E000F7010108F7010108F7010108F70101080C
:1000F000F7010108F7010108F7010108F7010108FC
:10010000F7010108F7010108F7010108F7010108EB
:10011000C5CC0108F7010108F7010108F701010842
:10012000F7010108F7010108F7010108F7010108CB
:10013000DFF80CD000F098FE004800475DE20108AF
:1001400028FA0020224B19680868B0E8F00F80F305
:100150000988BFF36F8F4FF0000080F311884EF0D5
:100160000D0E70470000000006480068006880F32C
:10017000088862B661B6BFF34F8FBFF36F8F00DFA1
:1001800000BF00BF08ED00E0EFF30980BFF36F8F01
:100190000F4B1A6820E9F00F106008B54FF05000BF
:1001A00080F31188BFF34F8FBFF36F8F10F0C0FE45
:1001B0004FF0000080F31188BDE808401968086816
:1001C000B0E8F00F80F30988BFF36F8F704700BF6E
:1001D00084000020EFF30580704700000648804748
:1001E00006480047FEE7FEE7FEE7FEE7FEE7FEE71C
:1001F000FEE7FEE7FEE7FEE79DC9010831010108C1
:10020000202A04DB203A21FA02F00021704721FA6B
:1002100002F3D040C2F120029140084319467047D2
:10022000A0F14101192900D82030704740EA0103AC
:100230009B0703D009E008C9121F08C0042AFAD29C
:1002400003E011F8013B00F8013B521EF9D2704760
:10025000D2B201E000F8012B491EFBD27047002208
:10026000F6E710B513460A4604461946FFF7F0FFB5
:10027000204610BD30B505462A460B4612F8010B44
:1002800013F8014B08B1A042F8D01CB1002802D0ED
:100290006D1CF1E7284630BDCAB2401E10F8011FA0
:1002A0008A4202D00029F9D100207047421C10F880
:1002B000011B0029FBD1801A704730B5044600208D
:1002C000034600E05B1C934203D2E05CCD5C401B24
:1002D000F8D030BD034611F8012B00F8012B002A9D
:1002E000F9D11846704730B505460020034600E0B6
:1002F0005B1C934205D2EC5CC85C201A01D1002C37
:10030000F6D130BD0FB400B58DB010A909900B9097
:1003100000914FF0FF300A9000200C9005480690A5
:10032000054807906A4609A80F9900F025FC0DB012
:100330005DF814FB950B0108B30B01082DE9FF5F75
:10034000D2E901A74FF00008916999461446DDF8FB
:1003500038B0464601988847054659EA0B0005D053
:1003600009E0A169761C019888470546216A28465C
:1003700088470028F5D1681C03D05FEACA7005D011
:1003800015E04FF0FF3004B0BDE8F09F2068011D7C
:100390002160D0F800800AE05FEACA7001D108F855
:1003A000015BA169761C7F1E019888470546002FD6
:1003B0001ADD681C18D0B9F1000F0DD0E81705EB55
:1003C000D060421120F01F0059F822102A1A012093
:1003D00090400142E0D107E0BBF1000FDCD1216A7F
:1003E000284688470028D7D0E16901988847BBF1A3
:1003F000000F07D1002E05DD5FEACA7002D100218F
:1004000088F80010A068B84203DDBBF1000F03D0EC
:1004100017B16FF00100B6E73046B4E770B5064695
:100420000CF0DCFE046805460A220021304600F08C
:100430001FFC2C6070BDF0B480EA0102D40F4200B2
:10044000B2EB410F02D20246084611464A0042D0A2
:10045000C30DDDB2C1F3C752AD1A202D35DAC1F399
:10046000160141F4000204B15242C5F1200602FA1D
:1004700006F12A411044B3EBD05F23D0C4B1012D63
:10048000A0EBC35009DCF0BC4FF0004202EAC352BB
:10049000DBB200F5000000F02CBC400000F18070E1
:1004A00000EBC350A0F1807040EAD170490009E030
:1004B000490841EAC071A0EBC35000F500004008B4
:1004C00000EBC350F0BC00F00BBC6142012202EB18
:1004D0004101001BF6E7F0BC704781F00041AAE73C
:1004E00080F00040A7E780EA010210B502F0004367
:1004F000400022D04A001FD0010E01EB1261C0F370
:100500005600C2F3560240F4000042F40002A0FB81
:10051000022000047F39140400D0401C50EA12402D
:1005200001D44000491EC2B20C0604EBD010401C9E
:100530004008802A02D003E0002010BD20F0010016
:10054000002900DA0020184310BD30B480EA01020F
:1005500002F0004530F0004221F0004013D090B18D
:10056000C30DD40DC2F31601C0F31600E41A41F412
:10057000000140F400027D34914201D3641C00E08C
:100580004900002C02DA30BC002070474FF4000014
:100590000023914201D3891A034340084FEA4101E5
:1005A000F7D151B1914202D14FF0004105E002D2A2
:1005B0004FF0010101E06FF0010103EBC45028444A
:1005C00030BC00F08DBB420005D0C0F3C752524290
:1005D000914201DC0020704700EBC15070472DE9CB
:1005E000FE4F804681EA0300C00F0C46009021F0C8
:1005F000004123F00045B8EB0200A94105D2404676
:10060000214690461C460B46024623F0004010430C
:1006100047D0270DC7F30A00C3F30A510290401ACE
:10062000019040286BDAC3F3130040F4801B00985C
:10063000924620B10023D2EB030A63EB0B0B019827
:100640005946C0F14002504600F06FFA06460D468A
:1006500050465946019A00F077FA10EB08006141C4
:10066000002487EA115284EAE7731A4340D0009AC3
:1006700062B3019A012A4FEA075215DC001B61EBB5
:1006800002014FF0004202EA0752CDE90042001C8D
:1006900041F5801132462B4600F068FB03B0BDE8FF
:1006A000F08F40462146F9E7001B61EB0201001C78
:1006B00041F5801300185B412018A2F5001747EBA5
:1006C000030140EAD570B6196D4111E06D084FEA9B
:1006D000360645EAC0754FEA0752001B61EB02017E
:1006E000001C41F5801149084FEA300000195141C2
:1006F00032462B4603B0BDE8F04F00F028BB00980F
:10070000012240000023D0EB020263EBE07300986B
:1007100021464FEAE074B8EB000061EB0401E9E721
:1007200083F000435BE781F0004158E72DE9FE4F7D
:1007300081EA030404F0004421F0004100944FF0EA
:10074000000B23F0004350EA01045ED052EA030498
:100750005BD0C3F30A54C1F30A552C44A4F2F3341A
:100760000194A0FB0254C1F3130141F48011C3F3BF
:10077000130343F4801301FB024400FB034E840A7D
:10078000970A44EA815447EA8357A4FB0768029515
:100790008D0A05FB07854FEA932C04FB0C542705B3
:1007A000029D4FEA065847EA1637B5EB08056EEB8F
:1007B000070C870E920E47EA811742EA8312A7FBC5
:1007C0000201B6EB0B0164EB00042B0D43EA0C3382
:1007D0005E1844EB1C50DA465146E7FB0201C5F3B4
:1007E00013044FEA0B3343EA14534FEA0432019CDB
:1007F00043EA0603A4F10C040294009CCDE900B482
:1008000000F0B4FA03B0BDE8F08F00200146F9E72C
:100810002DE9F04D81EA030404F0004B21F000457E
:1008200014464FF0000A23F0004150EA050220D0A0
:1008300054EA01021DD0C5F30A570246C5F313035B
:10084000C1F31300C1F30A5640F4801543F480133A
:10085000A7EB0608101BD64608F2FD3873EB05001F
:1008600002D308F1010801E092185B41B8F1000FD2
:1008700003DA00200146BDE8F08D00204FF480111E
:10088000064684460EE0171B73EB050705D3121BC3
:1008900063EB050306434CEA010C49084FEA3000BC
:1008A00092185B4150EA0107EDD152EA030012D0E1
:1008B00082EA040083EA0501084305D0101BAB411E
:1008C00006D20122002306E000224FF0004302E09E
:1008D0006FF0010253101AEB06004CEB085110EBBD
:1008E0000A0041EB0B01BDE8F04D00F030BAC10F3A
:1008F00080EAE0700844CA079623002100F0F9B9A5
:1009000096230022114600F0F4B90EB5C10F80EA1B
:10091000E0700844CA07002140F233438DE80E001E
:100920000A460B4600F022FA03B000BD0EB540F2B5
:10093000334102910021CDE900110A460B4600F037
:1009400015FA03B000BD70B5C1F30A5201F00045BD
:100950000024C1F3130140F2FF3341F480119A42A5
:1009600001DA002070BD40F233439A42A2F23342D2
:1009700003DC5242FFF744FC00E090402C43F1D0EE
:10098000404270BDC1F30A5210B5C1F3130140F2E9
:10099000FF3341F480119A4201DA002010BD40F289
:1009A00033439A42A2F2334203DC5242FFF728FC5F
:1009B00010BD904010BD00F0004230F000400AD061
:1009C000C10D01F56071C0F3160042EA0151C20881
:1009D00040071143704700200146704730B5041EA0
:1009E00071F1000404DB4FF00044404264EB01016C
:1009F000141E73F1000405DB1C464FF00043524205
:100A000063EB04038B4208BF824230BD30B5041E45
:100A100071F1000404DB4FF00044404264EB01013B
:100A2000141E73F1000405DB1C464FF000435242D4
:100A300063EB0403994208BF904230BD01F00043CC
:100A400030B421F0004150EA010206D00A0DA2F5AF
:100A50006072C1F31301002A02DC30BC0020704731
:100A6000440F44EAC104C100E01830BC00EBC2509E
:100A700000F036B9002801DBC0F10040002901DB9D
:100A8000C1F1004181427047002801DBC0F1004004
:100A9000002901DBC1F100418842704730B50B46A7
:100AA000014600202022012409E021FA02F59D429E
:100AB00005D303FA02F5491B04FA02F52844151E72
:100AC000A2F10102F1DC30BD2DE9F05F0546002006
:100AD00092469B4688460646814640241BE02846AF
:100AE000414647462246FFF78BFB53465A46C01AFB
:100AF000914110D311461846224600F016F82D1ADF
:100B000067EB01084F4622460120002100F00DF856
:100B100017EB00094E41201EA4F10104DFDC48461A
:100B200031462A464346BDE8F09F202A04DB203A9E
:100B300000FA02F1002070479140C2F1200320FA30
:100B400003F3194390407047202A06DBCB17203A65
:100B500041FA02F043EAE07306E041FA02F3D040C2
:100B6000C2F12002914008431946704702681144BF
:100B70001378016018467047D160044951610449F7
:100B8000116200211161114600F08EB96D0B010850
:100B9000950E0108426842B1016811F8013B23B18A
:100BA000521EC0E90012184670470121C160881E1C
:100BB000704742685AB1C368016843B983688B4281
:100BC00005D0491E521CC0E90012002070474FF0AA
:100BD000FF3070470FB4002300B589B00CA9009115
:100BE0000B996FF00042CB601E4B06931E4B079390
:100BF0000423CDE901321D4A089202466B460020CB
:100C000000F068FB09B05DF814FB70B586B00646CD
:100C10004FF0FF300091CDE90101002015460C4650
:100C200004903246694604A8FFF7D4FF03460498AF
:100C3000211825B108B10A4600E022462A600028A2
:100C40000DD0002B02DD0098884208D0081B0094CC
:100C5000CDE901043246694604A8FFF7BBFF06B0A0
:100C600070BD0000950B0108B30B0108950E01083B
:100C70002DE9F04791460F4680460446002614F8B9
:100C8000015B2DB100F002F90068405DC007F6D1AC
:100C90002B2D02D02D2D18D0641E4A4639462046F1
:100CA00000F034FC27B13968A14201D1C7F80080B7
:100CB00071054FF002040BD54042002803DD0CF013
:100CC0008DFA0460A007BDE8F08746F48066E4E78B
:100CD0000028F8DA0CF082FA04606FF00040F2E7C6
:100CE0000029A8BF7047401C490008BF20F0010040
:100CF000704710B4B0FA80FC00FA0CF050EA01041E
:100D000004BF10BC704749B1CCF1200421FA04F4AF
:100D100011FA0CF118BF012121430843A3EB0C0188
:100D2000CB1D4FEA00614FEA102042BF002010BCEB
:100D3000704700EBC35010440029A4BF10BC70479B
:100D4000401C490008BF20F0010010BC704710B5DE
:100D5000141E73F1000408DA401C41F100019218DE
:100D60005B411A4301D120F0010010BD2DE9F04D87
:100D700092469B4611B1B1FA81F202E0B0FA80F2DC
:100D800020329046FFF7D1FE04460F4640EA0A00A3
:100D900041EA0B0153465A46084313D0114653EA21
:100DA000010019D0C8F140025046FFF729FA054664
:100DB0000E46504659464246FFF7B7FE084305D057
:100DC000012004E020463946BDE8F08D00200543AF
:100DD00046EAE0762C4337430A986305E40AA0EB21
:100DE00008000022FD0A44EA47540A3002D50020D8
:100DF0000146E9E7010510196941DDE908450019D7
:100E00006941BDE8F04DA2E770B521F0004303430E
:100E10000CD0C1F30A550024D5EB040564EB0403A0
:100E2000D617AD1AB34102DB0020014670BD201871
:100E300041EB025170BDC1F30A52C1F3130140F2FC
:100E4000FF3341F480119A4202DA002001467047D4
:100E500040F233439A42A2F2334202DC5242FFF79D
:100E6000CFB9FFF762BE0000064C074D06E0E06810
:100E700040F0010394E8070098471034AC42F6D3E1
:100E8000FFF75AF9141D0208341D02080048704784
:100E9000741B020810B50446FFF7F8FF0068005DF8
:100EA00000F0010010BD00002DE9F34F8BB04FF0B2
:100EB000000801F10C000C464FF0010B46460DF105
:100EC000080A0190626901210198904705002DD020
:100ED000252D2CD0216A8847C0B162690121019873
:100EE0009047216A88470028F7D1411E626901981E
:100EF000904700E0761CA1690B988847216A8847D3
:100F00000028F7D1E1690B988847DBE7A1690B98C6
:100F100088470746A84201D1761CD3E7E1690B98C0
:100F200088477F1C02D1B8F1000F6FD046E100273F
:100F300062693D463946019890472A2804D1626982
:100F40000121019890470125DFF88492626901210F
:100F500001989047A0F130010A290AD24F45E5DCFB
:100F600007EB870100EB4107303FDFD445F0100568
:100F7000ECE7E90601D46FF000476C280AD04C2852
:100F800014D0682815D06A280DD074281CD07A286F
:100F90001AD01DE062690121019890476C2802D0A7
:100FA00045F0040514E045F002050DE045F020058C
:100FB0000AE06269012101989047682802D045F053
:100FC000080505E045F40065626901210198904734
:100FD000C4E9015765283DD019DC58287AD00CDCCB
:100FE000452837D004DC252826D0412831D131E0EE
:100FF00046282FD047282CD12CE05B2877D06128B9
:1010000028D063287CD0642823D15AE0D0E06F2810
:1010100048D008DC66281DD067281BD0692821D05D
:101020006E2816D127E0702845D0732868D075281F
:1010300047D078280DD14DE0A1690B988847054627
:1010400025283FF469AFE1690B9888476D1C3FF490
:101050006AAFB3E023466A466FF001000B9900F0D7
:1010600039F99EE045F040006060A80723464FF044
:10107000000236D43EE0E8077FF447AF2068011D48
:1010800021600068290501D506701BE7290701D5F5
:10109000068017E7A90703D5F117C0E9006111E73A
:1010A00006600FE745F040006060A80723464FF058
:1010B000080216D41EE040F60E0125EA0100606029
:1010C00016E045F040006060A80723464FF00A0292
:1010D00007D40FE045F040006060A80708D523461C
:1010E00010226FF001000B99AFF3008059E007E088
:1010F000234610226FF001000B99AFF3008050E0FF
:101100004FF000094F464B46632802D05B2806D0BB
:1011100040E0E80601D40120A06001273AE06269BE
:101120000121019890475E2805D14FF001096269BD
:10113000494601989047216939B900210A4653462A
:1011400043F82120491C0829FADBB0B3216969B9A9
:10115000C11700EBD16253110AEB830122F01F0289
:10116000821A01200B68904003430B6062690121E1
:10117000019890475D28E8D1B9F1000F09D000200F
:10118000514651F82020D24341F82020401C082825
:10119000F7DB02AB224600976FF001000B99FFF7D7
:1011A000CDF800280CDA401C08D1BBF1000F05D0A7
:1011B0004FF0FF300DB0BDE8F08FFFE74046F9E794
:1011C000E90701D108F1010806444FF0000B79E668
:1011D000CCCCCC0C2DE9FF4F087881B09946FF2884
:1011E00005D0491C2D2804D00024002308E000234A
:1011F0000BE00124F9E703EB830300EB4303491CF5
:101200000878FF28F7D104B15B42002000901478E1
:1012100001462D2C01D02B2C04D1521C2D2C12D088
:101220000024009400251678FF2E0ED00A24A0FB7F
:1012300004C801FB0481002700FB0711521C16EBB8
:101240000C006941EFE70124EBE7994450EA010201
:101250000ED00024AA4D2646DFF8A88200F004FA3A
:1012600082468B46B9F1000009DAC9F100071BE09C
:1012700001980021C0E9001105B0BDE8F08F0746D4
:1012800012E0F80707D022462B4630464146FFF7CA
:101290004DFA0646884622462B4610461946FFF769
:1012A00045FA04460D467F10002FEAD1B9F1000F30
:1012B000324643465046594602DAFFF7A9FA01E0A2
:1012C000FFF734FA009A0AB181F00041019AC2E9AD
:1012D0000001D1E72DE9FF4F1F468DB0D7E9014648
:1012E0004FF0FF382E2045464FF000090B90B969AA
:1012F0006D1C0E988847396A824688470028F6D1C7
:10130000BAF1FF3F0AD024F4D064002E11DDBAF107
:101310002B0F08D0BAF12D0F0BD102E0404611B0CF
:10132000ABE744F48064B9696D1C0E988847824627
:10133000761E6946600501D52D2000E02B208DF832
:10134000000001F1010B0DF1200809E0B9696D1CE5
:101350000E98884782460F9844F40074761E056004
:10136000002E02DDBAF1300FF0D00B998A453ED144
:1013700044F0800406E00F99681CA9F1010944F4C7
:1013800000740860B9696D1C761E0E988847824605
:101390003028F0D02BE00B998A4505D1200603D4E4
:1013A00044F08004761E18E050460CF05FF808B355
:1013B0000DF11301761E44F400748B4508D2AAF196
:1013C00030000BF8010B200607D5A9F1010003E05E
:1013D000200602D409F101008146A00502D50F992B
:1013E000681C0860B9696D1C0E9888478246002EFB
:1013F000D1DC53E0002E51DDBAF1650F02D0BAF115
:10140000450F4BD1A00549D5B9696D1C24F4407432
:10141000761E0E9888478246002E0CDD2B2804D0BD
:10142000BAF12D0F07D144F48074B9696D1C0E9880
:1014300088478246761EE00501D52D2100E02B214C
:1014400008F8011BCDF82C8021E00DF12901761E52
:1014500044F4007488450CD2AAF1300010F0FF006B
:1014600088F8000002D10B99884509D908F10108D4
:1014700006E0E00501D5244801E042F20F70814604
:10148000B9696D1C0E98884782460F980560002E3A
:1014900004DD50460BF0EAFF0028D6D1F9690E981A
:1014A0008847FF208BF8000088F800000020069095
:1014B00007904B466A4608A906A8FFF78BFEA005D1
:1014C00002D46FF001002AE714F0240F0AD0E007DD
:1014D00014D1DDE906123868031D3B600068C0E9DD
:1014E00000120BE0DDE90601FFF7A8FA0146E0076C
:1014F00004D13868021D3A600068016028460EE792
:10150000000024400000F03FF1D8FFFF2DE9F05F1C
:1015100082460078002715468B460AF10104B94639
:10152000302801D09DB113E014F8010B0127782871
:1015300003D0582801D045B10AE00DB1102D07D1D4
:101540000027102514F8010B02E0082500E00A2509
:101550000026B0460EE005FB080005FB06F101275A
:1015600001EB10461FFA80F8B6F5803F00D3B9466C
:1015700014F8010B294600F069F80028EBDABBF1FA
:10158000000F05D00FB1641E00E05446CBF80040B8
:10159000B9F1000F06D00BF021FE02210160C81E38
:1015A000BDE8F09F48EA0640FAE72DE9F04D002338
:1015B0001A461B1A8A4103DB00200146BDE8F08D64
:1015C000C1F30A52C1F3130141F480154FF0000B2F
:1015D000D10702D100186D41521E0027044640F287
:1015E000FF11384601EB620A3E4680460246002063
:1015F0004FF48011FEF704FEC2197141BB1846EB8F
:101600000100B4EB030C75EB000C04D3E41A65EB9A
:10161000000517460E46241908F101006D41804669
:101620003428E3DDF91946EB0600091BA84103D273
:101630004FF0FF32134601E0002213461BEB070078
:1016400046EB0A51BDE8F04DFFF781BB3A2800D2C6
:10165000303820F02002412A01D3A2F1370088421D
:1016600001D34FF0FF3070470EB540F23342029283
:101670000022CDE900221346FFF778FB03B000BD3E
:1016800070B58C1810F8015B15F0070301D110F844
:10169000013B2A1106D110F8012B03E010F8016B71
:1016A00001F8016B5B1EF9D12B0705D40023521EF4
:1016B0000DD401F8013BFAE710F8013BCB1A921C5C
:1016C00003E013F8015B01F8015B521EF9D5A1425A
:1016D000D8D3002070BD00002DE9F05FFC48FE4D1E
:1016E000FE4F0178FB48FE4EFE4C00884FF0000A8A
:1016F0004FF0814BFC4A0129D2F828900CD00229E6
:101700006CD003297ED004297DD005297CD0062900
:101710007BD000297AD0CEE1FFF708F90022F34B05
:10172000FFF704F80022F24BFFF772F8FFF786F993
:10173000DFF8B4834946C8F81C00FFF7A5F907D2C3
:10174000D8F82810D8F81C00FEF775FEC8F81C0061
:10175000D8F82810D8F81C00FFF78CF907D8D8F86B
:101760002410D8F81C00FEF7B8FEC8F81C00B8F822
:101770001000FFF7C5F88146B8F81400FFF7C0F86D
:10178000D8F81C10FEF7AFFEDA49FEF7ACFE49466A
:10179000FEF7DBFED84920600144B1F5002F03D8E5
:1017A000D5484042206006E0D4490844B0F5800F97
:1017B00001D8C4F800B0296838688846FEF78DFE65
:1017C000054659462068FEF788FE6FF00301FEF7D4
:1017D000FAFE2946FEF787FE41463FE0FFF7A6F8EE
:1017E0000022C24BFEF7A2FF0022C14BFFF710F808
:1017F000FFF724F9DFF8F0824946C8F81C00FFF72C
:1018000043F904E02DE073E0B5E0F8E04FE107D2E2
:10181000D8F82810D8F81C00FEF70DFEC8F81C00F8
:10182000D8F82810D8F81C00FFF724F907D8D8F802
:101830002410D8F81C00FEF7FEFDC8F81C00B8F80C
:101840001400FFF75DF8D8F81C10FEF74CFEDFF827
:10185000B08220603BE0C4F800803AE0FEF7EBFD88
:1018600028E1FFF763F80022A04BFEF75FFF00229C
:101870009F4BFEF7CDFFFFF7E1F8DFF86C8249469A
:10188000C8F81C00FFF700F907D2D8F82810D8F8DC
:101890001C00FEF7D0FDC8F81C00D8F82810D8F8B6
:1018A0001C00FFF7E7F807D8D8F82410D8F81C0078
:1018B000FEF7C1FDC8F81C00B8F81400FFF720F8C7
:1018C000D8F81C10FEF70FFEDFF838822060404584
:1018D000C1DA296838688946FEF7FFFD05464146AA
:1018E0002068FEF732FE2946FEF7FDFD4946B5E7C2
:1018F000FFF71CF800227D4BFEF718FF00227C4BFF
:10190000FEF786FFFFF79AF8DFF8DC814946C8F852
:101910001C00FFF7B9F807D2D8F82810D8F81C0037
:10192000FEF789FDC8F81C00D8F82810D8F81C006C
:10193000FFF7A0F807D8D8F82410D8F81C00FEF755
:101940007AFDC8F81C00B8F81400FEF7D9FFD8F8E3
:101950001C10FEF7C8FD4FF07E512060884200DB6E
:101960002160296838680D46FEF7B7FD2168FEF74B
:10197000BAFD294672E7FEF7D9FF00225B4BFEF75E
:10198000D5FE00225A4BFEF743FFFFF757F8DFF86A
:1019900058814946C8F81C00FFF776F807D2D8F8F6
:1019A0002810D8F81C00FEF746FDC8F81C00D8F82F
:1019B0002810D8F81C00FFF75DF807D8D8F82410D5
:1019C000D8F81C00FEF737FDC8F81C00B8F8100066
:1019D000FEF796FF8146B8F81400FEF791FFD8F89D
:1019E0001C10FEF780FD4349FEF77DFD4946FEF7DA
:1019F000ACFDDFF804812060C8F1000867E7FEF75E
:101A000095FF0022394BFEF791FE0022384BFEF77E
:101A1000FFFEFFF713F8DFF8D0804946C8F81C0036
:101A2000FFF732F807D2D8F82810D8F81C00FEF7D4
:101A300002FDC8F81C00D8F82810D8F81C00FFF7E1
:101A400019F807D8D8F82410D8F81C00FEF7F3FCD2
:101A5000C8F81C00B8F81400FEF752FFD8F81C10A4
:101A6000FEF741FD28492060884200DB216028689C
:101A70000546FEF7A0FF8046894629463868FEF7EE
:101A80002CFDFEF798FF05460F462068FEF793FFF2
:101A90000022164BFEF7BCFE2A463B46FEF746FEEA
:101AA00042464B46FEF79BFDFEF7C8FF02E050465C
:101AB000C4F800A0306015481549164D0078164F3F
:101AC000164E174C01283AD002287DD0032829E071
:101AD0002C010020080000204401002048010020C3
:101AE0003C01002034010020F800002000000440E8
:101AF000E0FFEF4000007A44000060BE0000C0BF7D
:101B00000000A04000002041000020402D010020E6
:101B10000A0000204C01002050010020400100205C
:101B2000380100206FD004286ED005286DD006281B
:101B30006CD000286BD15046C4F800A0A4E00888FF
:101B4000FEF7F4FE0022E64BFEF7F0FD0022E54B27
:101B5000FEF75EFEFEF772FFDFF88C83C8F8200008
:101B6000D8F82810FEF790FF07D2D8F82810D8F838
:101B70002000FEF760FCC8F82000D8F82810D8F83C
:101B80002000FEF777FF05D8D8E90801FEF753FCDF
:101B9000C8F82000B8F81200FEF7B2FE8146B8F887
:101BA0001600FEF7ADFED8F82010FEF79CFCCF49DA
:101BB000FEF799FC4946FEF7C8FCCD492060014478
:101BC000B1F5002F05D800E022E0C948404220606E
:101BD00006E0C8490844B0F5800F01D8C4F800B049
:101BE000296838688846FEF778FC0546594620681B
:101BF000FEF773FC6FF00301FEF7E5FC2946FEF7E4
:101C000072FC41463EE042E088E0CAE00DE13CE083
:101C10000888FEF78BFE0022B14BFEF787FD0022FD
:101C2000B04BFEF7F5FDFEF709FFDFF8BC82C8F800
:101C30002000D8F82810FEF727FF07D2D8F8281080
:101C4000D8F82000FEF7F7FBC8F82000D8F82810D5
:101C5000D8F82000FEF70EFF05D8D8E90801FEF7F6
:101C6000EAFBC8F82000B8F81600FEF749FED8F8DD
:101C70002010FEF738FCDFF8808220603DE0C4F8D9
:101C800000803CE0FEF7D7FB3060BDE8F09F08889D
:101C9000FEF74CFE0022924BFEF748FD0022914BCE
:101CA000FEF7B6FDFEF7CAFEDFF83C82C8F820005A
:101CB000D8F82810FEF7E8FE07D2D8F82810D8F890
:101CC0002000FEF7B8FBC8F82000D8F82810D8F894
:101CD0002000FEF7CFFE05D8D8E90801FEF7ABFBE0
:101CE000C8F82000B8F81600FEF70AFED8F8201051
:101CF000FEF7F9FBDFF8048220604045BFDA29686F
:101D000038688946FEF7E9FB054641462068FEF73C
:101D10001CFC2946FEF7E7FB4946B3E70888FEF7B7
:101D200005FE00226E4BFEF701FD00226D4BFEF713
:101D30006FFDFEF783FEDFF8B081C8F82000D8F809
:101D40002810FEF7A1FE07D2D8F82810D8F82000F6
:101D5000FEF771FBC8F82000D8F82810D8F820004A
:101D6000FEF788FE05D8D8E90801FEF764FBC8F83D
:101D70002000B8F81600FEF7C3FDD8F82010FEF7D3
:101D8000B2FB4FF07E512060884200DB2160296861
:101D900038680D46FEF7A1FB2168FEF7A4FB294633
:101DA00070E70888FEF7C2FD00224D4BFEF7BEFC2F
:101DB00000224C4BFEF72CFDFEF740FEDFF8288199
:101DC000C8F82000D8F82810FEF75EFE07D2D8F831
:101DD0002810D8F82000FEF72EFBC8F82000D8F80D
:101DE0002810D8F82000FEF745FE05D8D8E90801EC
:101DF000FEF721FBC8F82000B8F81200FEF780FDBE
:101E00008146B8F81600FEF77BFDD8F82010FEF7E3
:101E10006AFB3649FEF767FB4946FEF796FBDFF89B
:101E2000D0802060C8F1000867E70888FEF77EFDD3
:101E3000DFF8ACA000225346FEF778FC0022294BC5
:101E4000FEF7E6FCFEF7FAFDDFF89C80C8F82000FC
:101E5000D8F82810FEF718FE07D2D8F82810D8F8BE
:101E60002000FEF7E8FAC8F82000D8F82810D8F8C3
:101E70002000FEF7FFFD05D8D8E90801FEF7DBFAE0
:101E8000C8F82000B8F81600FEF73AFDD8F8201080
:101E9000FEF729FB1A492060884200DB2160286890
:101EA0000546FEF788FD8046894629463868FEF7D4
:101EB00014FBFEF780FD07460D462068FEF77BFD0C
:101EC00000225346FEF7A4FC3A462B46FEF72EFCB2
:101ED00042464B46FEF783FBFEF7B0FDD4E600001A
:101EE00000000440E0FFEF40F800002000007A44CA
:101EF000000060BE0000C0BF0000A0400000204104
:101F00000000204010B5FF21A02007F011FB55284C
:101F10000CD05522FF21A02007F028FBFF21A02094
:101F200007F006FB552801D0002010BD012010BD90
:101F300070B514460E46054609E0E9B26D1CADB217
:101F4000A02007F0F5FA641E06F8010BA4B2002CDD
:101F5000F3D170BDC1B2A02007F0EABA70B5164641
:101F60000D46044607E02A78E1B2A02007F0FEFA09
:101F7000641CA4B26D1C761EB6B2F4D270BDC0B2A1
:101F80000A460146A02007F0F1BA70B51E46049D2E
:101F9000044672B61C300EF06EFD2A46314604F13E
:101FA0002C000EF068FD0020206060602072E06070
:101FB00060722061606162B670BD2DE9F041154626
:101FC0000E46044672B60020106004F12C0007464D
:101FD0000EF024FD04280EDB042204F1180138461B
:101FE0000EF050FDA269002A05DD314604F11C0007
:101FF0000EF048FD286062B6BDE8F0812DE9FF4192
:102000001C460E46054672B61C3007460EF01FFDF4
:102010000299884218D905F12C0005460EF017FDEB
:1020200004280BDD31463846029A09F0DFFB042212
:1020300002A9284609F0DAFB002001E04FF0FF304A
:10204000206062B6BDE8FF816FF00100F8E7FEE7AF
:102050002DE9F047114C124F9046894605464FF442
:102060008056A04208D121686FF04000086001222C
:102070003146384605F085F84FF47A7342464946B2
:10208000284607F0D5F9A54206D131463846BDE8C5
:10209000F047002205F075B8BDE8F087B00C0020CD
:1020A000000C01402DE9F04FB7B00BF059FFF74994
:1020B0000126DFF8DCA3F74DDFF8DC93DFF8DC83E3
:1020C000086100287ED0DFF8C4B3F5A15C460BF0B0
:1020D0002BFF6061002848D032AC2DAB28AA23A981
:1020E0008DE81E0000691EAB19AAEFA1FEF70AF9E0
:1020F00019A8FEF793F9F54FA0F5FA60F8701EA83D
:10210000FEF78CF9787023A8FEF788F9B87028A834
:10211000FEF784F9EE4C20702DA8FEF77FF9607071
:1021200032A8FEF77BF9A07000222146E94806F0AC
:102130003FF900223946E74806F0D8F8E6A1ECA0BE
:102140000BF014F82078A27861788DE80700F97810
:10215000BB787A78E8A001F5FA610BF007F89BF8F4
:10216000040040F001018BF80410F1A15C46DBF89B
:1021700010000BF0D9FE606138B1EFA1DCA00AF0CD
:10218000F5FF207940F002002071F2A120690BF0E8
:10219000CBFE606138B1F3A1D5A00AF0E7FF20794A
:1021A00040F004002071F6A120690BF0BDFE6061D3
:1021B00000284AD0D0E906211046FEF7E3FB10F0D4
:1021C000FF0100E008E0F048217232D001224021F6
:1021D00004F0D7FFEDA131E00BF0A0FE0146F0A026
:1021E0000AF0C4FF0BF064FEA84CE060F2A00BF014
:1021F00067FE0246F7A1E0680BF030FEE0680BF0E6
:10220000E3FE07460246F8A1F8480AF0BFFFF84986
:10221000F84A0346086000210091CDE90112F34A13
:10222000F549F6480CF065FC38460BF007FFE0680E
:10223000FEE30022402104F0A4FFF1A1ACA00AF0CB
:1022400095FF207940F008002071F2A120690BF081
:102250006BFE6061D8B1D0E906211046FEF792FB13
:1022600010F0FF02ED4822724FF4004104D0012229
:1022700004F087FFEAA103E0002204F082FFEDA151
:102280009BA00AF073FF207940F010002071EEA1AE
:1022900020690BF049FE606190B1D0E9062110463B
:1022A000FEF770FBEB4FC1B205203970FFF767FEF8
:1022B0003978E9480AF05AFF207940F0200020716F
:1022C000E6A120690BF030FE606158B1E7A188A05B
:1022D0000AF04CFFFF210020FFF751FE207940F06B
:1022E00040002071E6A120690BF01EFE606170B114
:1022F000D0E906211046FEF745FBE44A014610608E
:10230000E3A00AF033FF207940F080002071E8A1BB
:1023100020690BF009FE4FF0020B606150B3D0E969
:1023200006211046FEF72EFBC0B257468AF8000081
:10233000022802D987F800B008E0012802D002285C
:1023400004D011E001200BF049FD0DE029884FF485
:102350007A70414301200BF0D9FC29884FF47A7040
:10236000414307200BF0D2FC39782320FFF707FE0A
:10237000397800E006E0D1A00AF0F8FE607940F07C
:1023800001006071DBA120690BF0CEFD606140B3FC
:10239000D0E906211046FEF7F5FA80B2288005281C
:1023A00001D20520288081B24FF47A704143012088
:1023B0000BF0ACFC29884FF47A70414307200BF0F6
:1023C000A5FC2888ADF81000022204A92420FFF7FC
:1023D000C5FD2988CAA00AF0C9FE607940F0020054
:1023E0006071CEA120690BF09FFD6061C0B1D0E9A2
:1023F00006211046FEF7C6FACB4FC0B2022838704D
:1024000002D3584687F800B0C1B22620FFF7B7FDC7
:102410003978C6A00AF0AAFE607940F00400607125
:10242000D1A120690BF080FD6061B0B1D0E9062137
:102430001046FEF7A7FACF4F10F0FF00387000D01B
:102440003E7039782720FFF79AFD3978CAA00AF044
:102450008DFE607940F008006071D3A120690BF017
:1024600063FD606180B1D0E906211046FEF78AFA6B
:10247000CF4F10F0FF00387000D03E703978282020
:10248000FFF77DFD397895E19BE10000A401002074
:1024900028010020320100202C01002044010020EE
:1024A0005345545F52544300255B5E2D5D2D255BE3
:1024B0005E2D5D2D255B5E205D20255B5E3A5D3ADD
:1024C000255B5E3A5D3A255B5E3A5D003400002094
:1024D000380000204C030020D4B6B3CCC5E4D6C3EA
:1024E000CAB1D6D3C9E8D6C3B2CECAFD3A000000FD
:1024F00025730D0A00000000D4B6B3CCC5E4D6C3E2
:10250000C4EAD4C2C8D5CAB1B7D6C3EB3A25303471
:10251000642D253032642D2530326420253032641C
:102520003A253032643A253032640D0A000000004A
:102530005265737461727400D4B6B3CCC5E4D6C36B
:10254000B8B4CEBBB5C8B4FDCFB5CDB3B8B4CEBB6F
:10255000210000005072696E745F436F6E66696798
:1025600000000000D4B6B3CCC5E4D6C3CFB5CDB31C
:10257000C5E4D6C3D0C5CFA2B4F2D3A121000000D8
:102580004F5554310000000000100140D4B6B3CCC8
:10259000C5E4D6C34F5554315F4F4E2100000000B3
:1025A0004572726F72206265666F72653A205B25B4
:1025B000735D0D0A00000000506C65617365206357
:1025C0006865636B204A534F4E20466F726D61748D
:1025D000000000004A534F4E20466F726D61742018
:1025E0006572726F72000000257300002CE90020F4
:1025F0001C020020D5B701085EED002034D0002079
:10260000D4B6B3CCC5E4D6C34F5554315F4F46461C
:10261000210000004F55543200000000000C014022
:10262000D4B6B3CCC5E4D6C34F5554325F4F4E2118
:1026300000000000D4B6B3CCC5E4D6C34F55543225
:102640005F4F4646210000005253343835547970AC
:102650006500000027010020CC1C0208466F726D47
:1026600061745F4545524F4D0000000020D4B6B361
:10267000CC4545524F4DB8F1CABDBBAF210000005B
:10268000434E435F494E554D000000005401002069
:10269000D4B6B3CCC5E4D6C354494D335F4341509F
:1026A000545552455F56414C313D25640D0A00009A
:1026B000434E435F5570547970650000D4B6B3CC77
:1026C000C5E4D6C3434E435F5570547970653D25CC
:1026D0006420303AB2BBC9CFB1A820313AB1E4BBD3
:1026E000AFC9CFB1A820323AB6A8CAB1C9CFB1A8F4
:1026F0000D0A0000434E435F557054696D6500003C
:10270000D4B6B3CCC5E4D6C3434E435F55705469C9
:102710006D653D2564C3EB0D0A000000434E435F29
:1027200059454C4C4F57000029010020D4B6B3CC7A
:10273000C5E4D6C3434E435F59656C6C6F773D2546
:102740006420303AB3A3C1C1BDE1CAF820313AC90F
:10275000C1CBB8BDE1CAF820323AC2F6B3E5BCC677
:10276000CAFD090D0A000000434E435F475245452C
:102770004E0000002A010020D4B6B3CCC5E4D6C375
:10278000434E435F475245454E3D256420303AB3A2
:10279000A3C1C1D4CBD0D020313AC9C1CBB8D4CB9E
:1027A000D0D00D0A00000000434E435F5245440064
:1027B0002B010020F6A00AF0D9FC607940F010004F
:1027C0006071FEA120690BF0AFFB606198B1D0E9A8
:1027D00006211046FEF7D6F8C1B24F4689F8001020
:1027E0002120FFF7CCFB3978F7480AF0BFFC60796D
:1027F00040F020006071F5A120690BF095FB60614D
:1028000090B1D0E906211046FEF7BCF8F24FC1B2F4
:1028100022203970FFF7B3FB3978F0480AF0A6FCA4
:10282000607940F040006071EDA120690BF07CFB05
:102830006061C8B1D0E906211046FEF7FFF8C8F87C
:10284000000004904746042204A90620FFF786FBF7
:102850003868FEF7B0F802460B46E5A00AF086FCA1
:10286000607940F080006071E8A120690BF05CFBAA
:102870006061C0B1D0E906211046FEF7DFF8E74FEE
:10288000042204A9386004900A20FFF767FB386827
:10289000FEF791F802460B46E1A00AF067FCA0792A
:1028A00040F00100A071E5A120690BF03DFB6061E3
:1028B000C0B1D0E906211046FEF7C0F8E34F04226C
:1028C00004A9386004900E20FFF748FB3868FEF733
:1028D00072F802460B46DEA00AF048FCA07940F0F0
:1028E0000200A071E1A120690BF01EFB6061C0B184
:1028F000D0E906211046FEF7A1F8E04F042204A912
:10290000386004901220FFF729FB3868FEF753F86F
:1029100002460B46DAA00AF029FCA07940F0040038
:10292000A071DEA120690BF0FFFA6061D0B1D0E99F
:1029300006211046FEF726F8DB4FC0B20328387098
:1029400002D90320387001E000B93E7039781620B2
:10295000FFF715FB3978D5A00AF008FCA07940F004
:102960000800A071D7A120690BF0DEFA6061B0B158
:10297000D0E906211046FEF705F8D54F10F0FF000C
:10298000387000D13E7039781720FFF7F8FA39789F
:10299000D0A00AF0EBFBA07940F01000A071D4A108
:1029A00020690BF0C1FA6061B0B1D0E90621104690
:1029B000FDF7E8FFD14F022204A9388080B2ADF8BC
:1029C00010001820FFF7CAFA3988CDA00AF0CEFB14
:1029D000A07940F02000A071D0A120690BF0A4FAEA
:1029E0006061D8B1D0E906211046FDF7CBFFCF4F8B
:1029F00080B21428388001D9142038803888ADF886
:102A00001000022204A91A20FFF7A8FA3988C8A0EA
:102A10000AF0ACFBA07940F04000A071CBA1206986
:102A20000BF082FA6061C0B1D0E90621104600E0E7
:102A300050E2FDF7A7FFC84F10F0FF00387000D13B
:102A40003E7039781C20FFF79AFA3978C3A00AF053
:102A50008DFBA07940F08000A071C6A120690BF029
:102A600063FA6061C8B1D0E906211046FDF78AFF1C
:102A7000C44F10F0FF00387022D0082801D9082078
:102A8000387039781D20FFF77AFA3978BEA00AF03D
:102A90006DFBE07940F00100E071C2A120690BF00C
:102AA00043FA6061F0B1D0E9061208461146FDF71D
:102AB00069FFC14FC0B20828387003D2082004E073
:102AC0003E70DEE7092801D909203870C1B21E2006
:102AD000FFF755FA3978B9A00AF048FBE07940F0E1
:102AE0000200E071BDA120690BF01EFA6061C8B15F
:102AF000D0E906211046FDF745FFBC4F10F0FF005E
:102B0000387042D0022801D987F800B039781F20E8
:102B1000FFF735FA3978B6A00AF028FBE07940F0E3
:102B20000400E071B9A120690BF0FEF96061C8B141
:102B3000D0E906211046FDF725FFB84F10F0FF0041
:102B4000387023D0032801D9032038703978202029
:102B5000FFF715FA3978B2A00AF008FBE07940F0E7
:102B60000800E071B5A120690BF0DEF9606158B191
:102B7000D0E906211046FDF705FFB44F80B24FF4AF
:102B80007A613880884263E174E12DE22EE2000030
:102B9000D4B6B3CCC5E4D6C3434E435F5245443D9F
:102BA000256420303AB3A3C1C1B9CAD5CF20313A88
:102BB000C9C1CBB8B9CAD5CF0D0A00004144315FB5
:102BC0005479706500000000341C02084144325FF3
:102BD00054797065000000002D010020801C02085F
:102BE0004144315F50687956616C75653100000071
:102BF000D4B6B3CCC5E4D6C34144315F50687956EE
:102C0000616C7565313D25660D0A00004144315FF8
:102C100050687956616C75653200000048010020EB
:102C2000D4B6B3CCC5E4D6C34144315F50687956BD
:102C3000616C7565323D25660D0A00004144325FC6
:102C400050687956616C7565310000004C010020B8
:102C5000D4B6B3CCC5E4D6C34144325F506879568C
:102C6000616C7565313D25660D0A00004144325F97
:102C700050687956616C7565320000005001002083
:102C8000D4B6B3CCC5E4D6C34144325F506879565C
:102C9000616C7565323D25660D0A0000536C6176E6
:102CA000655F4E756D000000E6010020D4B6B3CC20
:102CB000C5E4D6C3536C6176655F4E756D3D256482
:102CC0000D0A00004D61737465725F414444520007
:102CD000E7010020D4B6B3CCC5E4D6C34D6173740C
:102CE00065725F414444523D25640D0A00000000B6
:102CF000537461727441646472000000E801002042
:102D0000D4B6B3CCC5E4D6C3537461727441646461
:102D1000723D253034780D0A0000000056616C7554
:102D2000654F724C656E746800000000DA01002087
:102D3000D4B6B3CCC5E4D6C356616C75654F724C3E
:102D4000656E74683D253034780D0A00536C6176E9
:102D5000655F414444520000D6010020D4B6B3CC94
:102D6000C5E4D6C3536C6176655F414444523D254A
:102D7000640D0A004D6F646275734261756452613F
:102D800074650000EA010020D4B6B3CCC5E4D6C314
:102D90004D6F6462757342617564526174653D255F
:102DA000640D0A004D6F64627573576F72644C65F1
:102DB0006E67746800000000EB010020D4B6B3CC4D
:102DC000C5E4D6C34D6F64627573576F72644C650A
:102DD0006E6774683D25640D0A0000004D6F6462E3
:102DE000757353746F70426974730000EC010020B6
:102DF000D4B6B3CCC5E4D6C34D6F64627573537457
:102E00006F70426974733D25640D0A004D6F6462F2
:102E1000757350617269747900000000ED01002043
:102E2000D4B6B3CCC5E4D6C34D6F6462757350613C
:102E3000726974793D25640D0A00000050756C7349
:102E4000655F496E74657276616C00000601002052
:102E500000D939803888ADF81000022204A92D204D
:102E6000FFF77CF83988FBA00AF080F9E07940F0A0
:102E70001000E071FEA120690BF056F8606198B176
:102E80000069FC4AAFF6A001FDF73CFAF94AAFF63B
:102E9000A801F9480AF07AF9F649F8A00AF066F9AB
:102EA000E07940F02000E071F9A120690BF03CF8D6
:102EB000606170B1D0E906211046FDF763FDF74966
:102EC00008600146F6A00AF051F9E07940F04000B0
:102ED000E07120690BF002F8F64C207900B1012076
:102EE000617901B101210843A17901B101210843B0
:102EF000E17901B10121084375D00AF0D9FFE06002
:102F00002079C00718D0EC48877843780278EB48DE
:102F100081788DE88E00C2784378E9A10CA802F58B
:102F2000FA620AF033F90CA80AF0CAFF0246AFF6BB
:102F30009021E0680AF092FF2079800708D5E8A088
:102F40000AF0BEFF0246AFF61821E0680AF086FFDD
:102F5000207940077ED50022E749E84805F0E5F8EA
:102F60000022E749E54805F0B9F8E3488778437857
:102F70000278E34881788DE88E00C2784378D0A14A
:102F80000CA802F5FA620AF001F9DE480AF098FF8F
:102F90000246DDA1E0680AF061FF0CA80AF090FF8C
:102FA0000246DCA1E0680AF059FFDFF874B39BF831
:102FB0000000FDF7BBFC0AF069FF0246D9A1E068FA
:102FC0000AF04CFF57469AF80000FDF7AFFC0AF0F4
:102FD0005DFF0246AFF62811E0680AF03FFF38783F
:102FE000022805D00FE06EE33E708FE53E70ADE540
:102FF0002888FDF79BFC0AF049FF0246AFF60C114A
:10300000E0680AF02BFFCA480078FDF78FFC0AF051
:103010003DFF0246AFF6FC01E0680AF01FFFC5481D
:103020000078FDF783FC0AF031FF0246AFF6C801D5
:10303000E0680AF013FFC0480078FDF777FC0AF05B
:1030400025FF0246AFF6A001E0680AF007FF99F8F5
:10305000000000E0C3E008B3FDF768FC0AF016FFCB
:103060000246AFF2A841E0680AF0F8FED8F8000086
:10307000FDF7A1FC0AF00AFF0246AFF29C41E068AE
:103080000AF0ECFEAD480068FDF795FC0AF0FEFE84
:103090000246AFF28841E0680AF0E0FEA8480078F6
:1030A00008B3FDF743FC0AF0F1FE0246AFF2E4413B
:1030B000E0680AF0D3FEA3480068FDF77CFC0AF044
:1030C000E5FE0246AFF28C41E0680AF0C7FE9E487A
:1030D0000068FDF770FC0AF0D9FE0246AFF27441B9
:1030E000E0680AF0BBFE9BF8000000286BD0974810
:1030F0000078FDF71BFC0AF0C9FE0246AFF26441FE
:10310000E0680AF0ABFE92480078FDF70FFC0AF089
:10311000BDFE0246AFF25441E0680AF09FFE8D48C2
:103120000088FDF703FC0AF0B1FE0246AFF2404111
:10313000E0680AF093FE88480088FDF7F7FB0AF084
:10314000A5FE0246AFF22C41E0680AF087FE8348F4
:103150000078FDF7EBFB0AF099FE0246AFF214414E
:10316000E0680AF07BFE7E480078FDF7DFFB0AF09E
:103170008DFE0246AFF20441E0680AF06FFE794826
:103180000078FDF7D3FB0AF081FE0246AFF2EC3186
:10319000E0680AF063FE74480078FDF7C7FB0AF0A8
:1031A00075FE0246AFF2CC31E0680AF057FE6F4878
:1031B0000078FDF7BBFB0AF069FE0246AFF2B431BE
:1031C000E0680AF04BFE6A480088FDF7AFFB0AF0A2
:1031D0005DFE0246AFF29C31E0680AF03FFE2079C6
:1031E00000070AD5207AFDF7A1FB0AF04FFE024640
:1031F000AFF67441E0680AF031FE2079C0060AD5C6
:10320000207AFDF793FB0AF041FE0246AFF6FC314F
:10321000E0680AF023FE207980060BD5404800784C
:10322000FDF784FB0AF032FE0246AFF6E431E068B7
:103230000AF014FE207940060AD54EA2AFF6584196
:103240000CA809F0A3FF0CA80AF03AFE024693E08E
:103250009BE00000D4B6B3CCC5E4D6C350756C7304
:10326000655F496E74657276616C3D25640D0A0078
:1032700055524C0068C300205AC70020D4B6B3CCC6
:10328000C5E4D6C355524C3A25730D0A0000000020
:1032900046696C6553697A6500000000580100209A
:1032A000D4B6B3CC46696C6553697A653A25640D2A
:1032B0000A000000A4010020380000203400002093
:1032C000253034642D253032642D2530326420259C
:1032D0003032643A253032643A25303264000000DE
:1032E0007761697420666F722073797374656D20DD
:1032F00072657365742100003B0000204C030020C0
:103300003E0000206C01002056657273696F6E5F8D
:103310004E756D004C6F63616C5F54696D650000A4
:103320002701002052533438355F5479706500000E
:10333000290100202A0100202B0100204801002043
:103340002D0100204C01002050010020E60100204A
:10335000E7010020E8010020DA010020D60100206A
:10336000EA010020EB010020EC010020ED0100202B
:10337000060100204F4B0000AFF62051E0680AF034
:103380006DFD207940F002002071207900060BD5F8
:10339000CE480068FDF7CAFA0AF078FD0246AFF69B
:1033A0002051E0680AF05AFD6079C0070BD09AF806
:1033B0000000FDF7BBFA0AF069FD0246AFF61051B6
:1033C000E0680AF04BFD607980070AD52888FDF790
:1033D000ADFA0AF05BFD0246AFF6E841E0680AF09C
:1033E0003DFD607940070BD5B9480078FDF79EFA9E
:1033F0000AF04CFD0246AFF6DC41E0680AF02EFD13
:10340000607900070BD5B3480078FDF78FFA0AF012
:103410003DFD0246AFF6B041E0680AF01FFD60795D
:10342000C0060BD5AC480078FDF780FA0AF02EFDF7
:103430000246AFF68C41E0680AF010FD6079800624
:103440000BD599F80000FDF771FA0AF01FFD02464E
:10345000AFF69801E0680AF001FD607940060BD5EF
:103460009E480078FDF762FA0AF010FD0246AFF6BA
:10347000A401E0680AF0F2FC607900060BD5D8F8E8
:103480000000FDF798FA0AF001FD0246AFF6B00120
:10349000E0680AF0E3FCA079C0070BD09048006810
:1034A000FDF789FA0AF0F2FC0246AFF6A001E068E7
:1034B0000AF0D4FCA07980070BD58A480068FDF794
:1034C0007AFA0AF0E3FC0246AFF69001E0680AF0EF
:1034D000C5FCA07940070BD583480068FDF76BFA5F
:1034E0000AF0D4FC0246AFF67C01E0680AF0B6FCB4
:1034F000A07900070BD57D480078FDF717FA0AF090
:10350000C5FC0246AFF66C01E0680AF0A7FCA079A2
:10351000C0060BD576480078FDF708FA0AF0B6FC2D
:103520000246AFF66001E0680AF098FCA0798006D8
:103530000BD570480088FDF7F9F90AF0A7FC0246A0
:10354000AFF65401E0680AF089FCA07940060BD57B
:1035500069480088FDF7EAF90AF098FC0246AFF6E0
:103560004401E0680AF07AFCA07900060BD56348B4
:103570000078FDF7DBF90AF089FC0246AFF634016A
:10358000E0680AF06BFCE079C0070BD05C4800787B
:10359000FDF7CCF90AF07AFC0246AFF62801E068A4
:1035A0000AF05CFCE07980070BD556480078FDF7FF
:1035B000BDF90AF06BFC0246AFF61801E0680AF0AC
:1035C0004DFCE07940070BD54F480078FDF7AEF988
:1035D0000AF05CFC0246AFF2FC71E0680AF03EFCC7
:1035E000E07900070BD549480078FDF79FF90AF00C
:1035F0004DFC0246AFF2EC71E0680AF02FFCE07976
:10360000C0060AD542480088FDF790F90AF03EFC52
:10361000024640A1E0680AF021FCE079800608D566
:1036200040480AF04DFC0246AFF2BC31E0680AF0B7
:1036300015FCE079400610D53B480068FDF776F9A7
:103640000AF024FC0246AFF2B831E0680AF006FC4A
:103650004FF4FA6109200AF08DFBE0680AF0B4FC2F
:103660000746024631A1324809F090FD0346314831
:1036700000252F4A036030480095CDE901502F49BD
:103680002F480BF036FA38460AF0D8FCE0680AF00A
:1036900025FC2079800712D54FF4FA7003F030FB37
:1036A00086F31388BFF34F8F26480168264A01F43A
:1036B000E06111430160BFF34F8F00BFFDE725714B
:1036C0006571A571E57137B0BDE8F08F5401002038
:1036D000290100202A0100202B0100202D010020BB
:1036E000480100204C01002050010020E60100208C
:1036F000E7010020E8010020DA010020D6010020C7
:10370000EA010020EB010020EC010020ED01002087
:103710000601002050756C73655F546872657368AC
:103720006F6C640068C300205801002025730000FE
:103730002CE900201C020020D5B701085EED002016
:1037400034D000200CED00E00400FA057CB55C4CA0
:10375000A168206981423AD92178002937D1002512
:10376000A5606178012914D0A169491CA1610329D0
:1037700001DBA561E560E168524E10297CD2DFE8EB
:1037800001F00E10171E272F373E454C535A616823
:10379000778BA5616570E168491CE160EBE700206B
:1037A00000E0012003F0E6F92069A0F57A705BE003
:1037B000CDE90060002344A2194644A005E0CDE90C
:1037C0000060002340A2194642A008F067FA7CBDC1
:1037D0004249CDE90010002341A2194642A0F4E776
:1037E0004449CDE9001000231A46194642A0ECE7EF
:1037F000CDE90060002334A2194642A0E5E7CDE9F7
:103800000060002330A2194641A0DEE7CDE9006048
:10381000002342A2194644A0D7E7CDE90060002367
:1038200029A2194643A0D0E7CDE90060002326A2D3
:10383000194644A0C9E7CDE90060002322A2194639
:1038400044A0C2E7CDE9006000231FA2194644A0AE
:10385000BBE7CDE90060002344A2194644A008F06C
:103860001DFA2069A0F5FA70BDE87C4000F09EB812
:10387000134B2833DA1D00E016E040A1464809F05A
:1038800085FC4549E06100230D54206943A2CDE940
:1038900000601946404898E74249CDE900100023EE
:1038A0001A464149184690E70023CDE900501A46D0
:1038B0001946184608F0F2F96570012020707CBDA9
:1038C00000020020496901084F4B000041540D0AD5
:1038D00000000000415445300D0A0000696A0108EB
:1038E0002B43434C4B3A000041542B43434C4B3F3A
:1038F0000D0A0000256A010841542B47534E0D0A5A
:103900000000000041542B4350494E3F0D0A000077
:1039100041542B4346554E3D310D0A002B43474140
:1039200054543A203100000041542B434741545431
:103930003F0D0A0041542B4349504D55583D300D21
:103940000A00000041542B4349504D4F44453D313E
:103950000D0A000041542B435354540D0A0000003B
:1039600041542B43494943520D0A00002E000000E8
:1039700041542B43494653520D0A000041542B43F6
:10398000495053544152543D22544350222C222535
:1039900073222C25730D0A002CE90020434F4E4E54
:1039A00045435400F96901089D6901080349012252
:1039B00048614A7000B9886888607047000200203A
:1039C00030B5114C114D89B0A0692968884208D0E2
:1039D0004FF47A7103200AF0CDF901202070286895
:1039E000A06103200AF036F901280BD120780128C4
:1039F00008D128680090042269462920FEF7AEFA13
:103A00000020207009B030BDF800002054010020D3
:103A10002DE9F05FA248A34F01260078A24C4FF099
:103A2000020842F2107B002510B101283ED046E08A
:103A30006078DFF878A24FF4807920B1012817D0A0
:103A4000022831D121E04946504603F091FB01287C
:103A500005D04946504603F08BFB38B12FE041F2C8
:103A6000883104200AF086F9667028E03D7026E06F
:103A700004200AF0EFF810B184F801801FE04946F5
:103A8000504603F075FB78B119E04946504603F003
:103A90006FFB012805D04946504603F069FB10B181
:103AA00002E03E7000E03D70657008E0A078DFF84D
:103AB000009268B101281AD002281FD0A5707D4855
:103AC000DFF8F4917D4F007820B301284ED054E008
:103AD000E27999F800108A42F1D0A07A421CA272D1
:103AE000082802D3A5723E70A670E171E7E7594637
:103AF00004200AF03FF984F80280E0E704200AF08D
:103B0000A9F808B1A570B1E799F800000128D6D14D
:103B1000A670D4E7E07820B1012811D0022823D183
:103B200018E03878012801D038B126E041F2883118
:103B300005200AF01FF9E6701FE089F800501CE02C
:103B400005200AF087F810B184F8038015E0387872
:103B500050B112E03878012801D018B104E089F89A
:103B6000006001E089F80050E57006E0207918B3A4
:103B7000012830D0022836D025715148524F0178A3
:103B8000504879B3012961D0022913D14F490A88DD
:103B900013060FD54E4B92061B8803EB92224FF46F
:103BA0007A73B2FBF3F2E3899A4202D30268521CA1
:103BB00002600D80BDE8F09F207A39788842DCD021
:103BC000E07A421CE272082803D3E57289F80060AB
:103BD00026712172D1E7594605200AF0CBF884F806
:103BE0000480CAE70AE005200AF034F808B125711C
:103BF000A3E738780128C0D12671BEE7617931B1D9
:103C000001290ED0022913D003291DD119E03878DB
:103C10000128CFD141F2883106200AF0ABF8667155
:103C2000C8E706200AF016F858B184F80580C1E705
:103C30003978012902D10168491C016003206071B3
:103C4000B8E738780028B5D16571B3E7A17921B11B
:103C5000012912D002291BD116E0617A3A789142EB
:103C6000A8D0217B4B1C2373082904D3257301683A
:103C7000491C0160A67162729CE7594606200AF051
:103C800079F884F8068095E7062009F0E3FF08B18B
:103C9000A5718FE7387801288CD1A6718AE70000DA
:103CA0002B01002026010020F80000200008014020
:103CB0008A0100202A010020250100208B0100201C
:103CC00029010020540100208C0100200000002068
:103CD0000200002030B5584891B0847843780278CB
:103CE000564881788DE81E00C278437854A104A814
:103CF00002F5FA6209F04AFA0AF0DAF8584CA061C3
:103D000004A80AF0DDF8024656A1A0690AF0A6F858
:103D10006078FCF70BFE0AF0B9F8024654A1A069DE
:103D20000AF09CF8554856A1027804A809F02EFA2A
:103D300004A80AF0C5F8024652A1A0690AF08EF85C
:103D400053484FA1027804A809F020FA04A80AF009
:103D5000B7F802464FA1A0690AF080F8504848A180
:103D6000026804A809F012FA04A80AF0A9F80246A9
:103D70004CA1A0690AF072F84F480088FCF7D6FD04
:103D80000AF084F802464DA1A0690AF067F84D4890
:103D90000068FCF710FE0AF079F802464AA1A06913
:103DA0000AF05CF84B480068FCF705FE0AF06EF874
:103DB000024649A1A0690AF051F84B480088FCF777
:103DC000B5FD0AF063F8024648A1A0690AF046F87A
:103DD00048480068FCF7EFFD0AF058F8024646A193
:103DE000A0690AF03BF847480068FCF7E4FD0AF0D8
:103DF0004DF8024644A1A0690AF030F8A0690AF023
:103E0000E3F80546024644A1444809F0BFF9444995
:103E1000444A0346086000210091CDE901123F4A5F
:103E2000414942480AF065FE28460AF007F9A069B0
:103E30000AF054F811B030BD3B0000203E000020D5
:103E4000253034642D253032642D25303264202510
:103E50003032643A253032643A2530326400000052
:103E6000A40100204C6F63616C5F54696D650000B4
:103E7000446174615F547970650000002501002081
:103E800025640000475245454E5F56616C756500DC
:103E9000260100205245445F56616C7565000000A4
:103EA0005401002054494D315F434150545552450F
:103EB0005F56414C3100000008000020616463310E
:103EC00000000000340100204144315F4556616C20
:103ED000756500003C0100204144315F506879560F
:103EE000616C7565000000000A00002061646332A7
:103EF00000000000380100204144325F4556616CEB
:103F000075650000400100204144325F50687956D9
:103F1000616C756500000000257300002CE900202D
:103F20001C020020D5B701085EED002034D000202F
:103F300030B5374891B08478437802783548817835
:103F40008DE81E00C278437833A104A802F5FA6216
:103F500009F01CF909F0ACFF374C206204A809F005
:103F6000AFFF024635A1206A09F078FF2078FCF700
:103F7000DDFC09F08BFF024633A1206A09F06EFFD9
:103F8000344835A1027804A809F000F904A809F022
:103F900097FF024631A1206A09F060FF32482EA146
:103FA000027804A809F0F2F804A809F089FF024693
:103FB0002EA1206A09F052FF2F4827A1026804A809
:103FC00009F0E4F804A809F07BFF02462BA1206A5F
:103FD00009F044FF206A09F0F7FF054602462CA1CC
:103FE0002C4809F0D3F82C4903462A4A08602B498B
:103FF00000200090CDE9010129492A480AF079FD05
:1040000028460AF01BF8206A09F068FF11B030BD9D
:104010003B0000203E000020253034642D25303246
:10402000642D2530326420253032643A25303264E4
:104030003A25303264000000A40100204C6F636117
:104040006C5F54696D650000446174615F54797000
:104050006500000025010020256400004752454509
:104060004E5F56616C756500260100205245445F25
:1040700056616C75650000005401002054494D31B3
:104080005F434150545552455F56414C310000004A
:10409000257300002CE900201C020020D5B7010880
:1040A0005EED002034D00020F0B506463C49C0EB60
:1040B000461001EB80053B4A3B499FB0947853780A
:1040C000887812788DE81D00CA784B7837A104A84B
:1040D00002F5FA6209F05AF809F0EAFE3B4CA063D7
:1040E00004A809F0EDFE024639A1A06B09F0B6FE66
:1040F000AA783A4F3AA104A882B109F047F8387873
:1041000038A1321811A809F041F804A809F0D8FE26
:10411000024611A9A06B09F0A1FE31E009F036F8C2
:10412000387830A1321811A809F030F804A809F045
:10413000C7FE024611A9A06B09F090FE0020E072B4
:104140002A4F2B4E18E039880A182AA104A809F032
:104150001DF8E07A29A105EB4000828811A809F03A
:1041600015F811A809F0ACFE024604A9A06B09F0ED
:1041700075FEE07A401CE0723188C0B28842E2D31A
:10418000A06B09F021FF054601461EA008F0EEFFD6
:10419000284609F053FFA06B09F0A0FE1FB0F0BD48
:1041A00050B300203B0000203E0000202530346446
:1041B0002D253032642D2530326420253032643A8A
:1041C000253032643A25303264000000240100209A
:1041D0004C6F63616C5F54696D650000E7010020FE
:1041E00025640000536C617665256400E8010020B9
:1041F000DA0100204164642564000000307825580D
:10420000000000000D0A25730D0A00002DE9F041A1
:1042100005464849C0EB451001EB800646489EB074
:10422000847843780278454881788DE81E00C2780A
:10423000437843A104A802F5FA6208F0A7FF09F049
:1042400037FE474CE06104A809F03AFE024645A15A
:10425000E06909F003FEA078FCF768FB09F016FEA0
:10426000024643A1E06909F0F9FDB278434F44A149
:1042700004A882B108F08AFF387842A12A1811A850
:1042800008F084FF04A809F01BFE024611A9E069AA
:1042900009F0E4FD2FE008F079FF387839A12A18F9
:1042A00011A808F073FF04A809F00AFE024611A93C
:1042B000E06909F0D3FD0025DFF8D080344F17E026
:1042C000B8F8000033A1421904A808F05FFF06EB1C
:1042D000450032A1828811A808F058FF11A809F002
:1042E000EFFD024604A9E06909F0B8FD6D1CEDB2CE
:1042F00038888542E4D3E06909F066FE0546024647
:1043000027A1284808F042FF2749284A03460860A9
:1043100000210091CDE90112224A254925480AF0E1
:10432000E8FB284609F08AFEE06909F0D7FD1EB0D7
:10433000BDE8F08150B300203B0000203E0000208B
:10434000253034642D253032642D2530326420250B
:104350003032643A253032643A253032640000004D
:10436000A40100204C6F63616C5F54696D650000AF
:10437000446174615F54797065000000E7010020BA
:1043800025640000536C617665256400E801002017
:10439000DA010020416464256400000025780000F3
:1043A000257300002CE900201C020020D5B701086D
:1043B0005EED002034D00020704700000649002048
:1043C000C8610648016941F004010161016941F0D9
:1043D0004001016170470000E81200200020024007
:1043E000044B0022DA61044A136943F001031361AC
:1043F00001807047E812002000200240704770479B
:104400004D54494F5F434F554E545F4169723732A7
:104410003400000000000000000000000000000068
:10442000000000000000000000000000000000008C
:10443000000000002DE9F04FFE4CFF4EFF4F607B67
:104440000025DFF8FCA3DFF8FCB3B1B001287CD174
:1044500000223146FC4803F068FE00223946FA4843
:1044600003F03CFEB878B378727831788DE80F00AD
:10447000FA787B78F5A10FA802F5FA6208F086FEBB
:1044800009F016FD606404F1480009F019FD0246C8
:10449000F6A1606C09F0E2FC0FA809F011FD0246DC
:1044A000F5A1606C09F0DAFCE078FCF73FFA09F05E
:1044B000EDFC0246F3A1606C09F0D0FC2079FCF71A
:1044C00035FA09F0E3FC0246F1A1606C09F0C6FC84
:1044D0002079022809D1E089FCF728FA09F0D6FCF6
:1044E0000246EEA1606C09F0B9FC6079FCF71EFA97
:1044F00009F0CCFC0246ECA1606C09F0AFFCA0799D
:10450000FCF714FA09F0C2FC0246EAA1606C09F05B
:10451000A5FCE079FCF70AFA09F0B8FC0246E8A12C
:10452000606C09F09BFC207AF0B1FCF7FFF909F010
:10453000ADFC0246E4A1606C09F090FC206AFCF737
:104540003AFA09F0A3FC024600E0ACE0E1A1606C9D
:1045500009F084FC606AFCF72EFA09F097FC024629
:10456000E0A1606C09F07AFC607AE0B1FCF7DEF95A
:1045700009F08CFC0246DFA1606C09F06FFCA06AB8
:10458000FCF719FA09F082FC0246DDA1606C09F023
:1045900065FCE06AFCF70FFA09F078FC0246DCA142
:1045A000606C09F05BFCE078002862D09AF80000AB
:1045B000FCF7BCF909F06AFC0246D9A1606C09F06D
:1045C0004DFC9BF80000FCF7B1F909F05FFC0246D6
:1045D000D6A1606C09F042FCD7480088FCF7A6F928
:1045E00009F054FC0246D5A1606C09F037FCD648AE
:1045F0000088FCF79BF909F049FC0246D3A1606CE6
:1046000009F02CFCD5480078FCF790F909F03EFC45
:104610000246D3A1606C09F021FCD4480078FCF775
:1046200085F909F033FC0246D1A1606C09F016FC53
:10463000D3480078FCF77AF909F028FC0246D1A1AA
:10464000606C09F00BFCD4480078FCF76FF909F0B6
:104650001DFC0246D1A1606C09F000FCD348007833
:10466000FCF764F909F012FC0246D1A1606C09F074
:10467000F5FBD3480088FCF759F909F007FC02461E
:10468000D0A1606C09F0EAFB606C09F09DFC8046EB
:104690000146D0A008F06AFD404609F0CFFC606CEE
:1046A00009F01CFC6573022009F0D4FA002804D03C
:1046B0002078022802D001287ED0ABE000225E499B
:1046C000614803F032FD00225C495F4803F006FDBB
:1046D000B878B378727831788DE80F00FA787B7803
:1046E0005AA10FA802F5FA6208F050FD09F0E0FBAC
:1046F00060640FA809F0E4FB02465FA1606C09F05A
:10470000ADFB6278B5A10FA808F040FD0FA809F035
:10471000D7FB0246B2A1606C09F0A0FBA278AFA162
:104720000FA808F033FD0FA809F0CAFB0246AFA19D
:10473000606C09F093FBA9A10FA8226B08F026FD7D
:104740000FA809F0BDFB0246ABA1606C09F086FB27
:10475000207AF0B1AD480088FCF7E8F809F096FB44
:104760000246ABA1606C09F079FB2069FCF723F9E4
:1047700009F08CFB0246A8A1606C09F06FFBA069F0
:10478000FCF719F909F082FB0246A6A1606C09F05A
:1047900065FB607A00B3A7480088FCF7C7F809F00A
:1047A00075FB0246A4A1606C09F058FB6069FCF738
:1047B00002F909F06BFB00E01DE00246A0A1606C6D
:1047C00009F04CFBE069FCF7F6F809F05FFB0246E4
:1047D0009EA1606C09F042FB606C09F0F5FB064697
:1047E00001467CA008F0C2FC304609F027FC606C52
:1047F00009F074FB0EE0E278012A18D0032A17D0E2
:10480000042A16D095A10FA808F0C0FC0FA971A02A
:1048100008F0ACFCA17A96482F90012903D009201A
:1048200009F018FA10B105F0B5F823E130E15FE1C5
:104830006DE16FE1240100203B0000203E000020DC
:10484000E6010020E70100204C03002025303464FD
:104850002D253032642D2530326420253032643AE3
:10486000253032643A253032640000005665727398
:10487000696F6E5F4E756D004C6F63616C5F54695C
:104880006D65000052533438355F5479706500000F
:10489000434E435F5570547970650000434E435F4B
:1048A000557054696D650000434E435F59454C4C4B
:1048B0004F570000434E435F475245454E000000AE
:1048C000434E435F524544004144315F5479706523
:1048D000000000004144315F50687956616C756595
:1048E000310000004144315F50687956616C756554
:1048F000320000004144325F5479706500000000CE
:104900004144325F50687956616C75653100000032
:104910004144325F50687956616C75653200000021
:10492000536C6176655F4E756D0000004D61737468
:1049300065725F4144445200E80100205374617283
:104940007441646472000000DA01002056616C75E5
:10495000654F724C656E746800000000D60100203F
:10496000536C6176655F414444520000EA010020C7
:104970004D6F6462757342617564526174650000C5
:10498000EB0100204D6F64627573576F72644C6564
:104990006E67746800000000EC0100204D6F6462D7
:1049A000757353746F70426974730000ED010020D9
:1049B0004D6F646275735061726974790000000014
:1049C0000601002050756C73655F496E74657276E0
:1049D000616C00000D0A25730D0A000025640000BB
:1049E000475245454E5F56616C7565005245445FC0
:1049F00056616C756500000054494D315F4341506C
:104A0000545552455F56414C3100000008000020CB
:104A100061646331000000004144315F4556616CC0
:104A2000756500004144315F50687956616C756569
:104A3000000000000A0000206164633200000000F2
:104A40004144325F4556616C756500004144325FF8
:104A500050687956616C75650000000044657669A0
:104A600063653438355F747970653D2564000000F6
:104A70005AC700202F9805F0C9F8606B05F0A0F820
:104A800005F0ACF804F0D6FFA572092009F0A6F9EC
:104A9000DFF80094B9F8000000047CD5FE480178E6
:104AA000E1293AD000214278E22A38D00022114090
:104AB0008278E32A35D000221140C2781E2A32D0F3
:104AC0000022007911402E282FD0002001424FF003
:104AD00001072CD001216420FDF751FAB9F800003C
:104AE0004C46C0F30D01EC48FBF7B9FB258085E08F
:104AF000207BFFF7D9FA207B401CC1B221739AF8C2
:104B00000000401E81427FF7D8AD257382E600F099
:104B1000C3FE7FE601F01EF97CE60121C3E7012216
:104B2000C5E70122C8E70122CBE70120CEE7DBA1E0
:104B3000D948FBF79FFB00284ED00DF104082DAE9D
:104B40002BAB29AA27A988E84E0024A9009105AB20
:104B50000AAAD4A1FBF7D6FB05A8FBF75FFCDC4E45
:104B6000A0F5FA60F07024A8FBF758FC707027A835
:104B7000FBF754FCB07029A8FBF750FCDFF8548316
:104B800088F800002BA8FBF749FC88F801002DA845
:104B9000FBF744FC00E0FCE388F8020000224146F9
:104BA000CD4803F005FC00223146CB4803F09EFBC4
:104BB000CAA1CEA008F0DAFA98F8000098F802200E
:104BC00098F801108DE80700F178B3787278C9A0E1
:104BD00001F5FA6108F0CAFAD2A1AF48FBF74AFB27
:104BE00080B1B9F800004C46C0F30D01AA48FBF7AC
:104BF00036FB2580CDA1BDA008F0B8FA87F3138855
:104C000006F0D6FDCDA1A448FBF734FB60B105AB9F
:104C10000AAACDA1FBF776FB05A8FBF7FFFBC1B203
:104C20002170CCA008F0A2FAD3A19B48FBF722FB8D
:104C300028B16773D4A1AFF2642008F097FAD7A126
:104C40009548FBF717FB28B12570D7A1AFF27C2060
:104C500008F08CFAD9A19048FBF70CFB40B1DBA11E
:104C6000A2A008F083FAFF210020FDF788F9B8E739
:104C7000DAA18948FBF7FEFA60B105AB0AAAB2A136
:104C8000FBF740FB05A8FBF7C9FB01462063D6A054
:104C900008F06CFAAFF208417F48FBF7EBFA4FF0EF
:104CA000020868B305AB0AAAA7A1FBF72BFB05A86E
:104CB000FBF7B4FBC0B22071022802D384F8048051
:104CC00008E0012802D0022804D011E0012009F0F8
:104CD00085F80DE0E1894FF47A704143012009F035
:104CE00015F8E1894FF47A704143072009F00EF876
:104CF00021792320FDF743F92179C1A008F036FA84
:104D0000AFF268416448FBF7B5FA38B305AB0AAABD
:104D10008DA1FBF7F7FA05A8FBF780FB80B2E081D5
:104D2000052801D20520E08180B2ADF87000022292
:104D30001CA92420FDF712F9E1894FF47A70414350
:104D4000012008F0E3FFE1894FF47A704143072026
:104D500008F0DCFFE189B6A008F008FAAFF2B8412C
:104D60004D48FBF787FAB0B105AB0AAA76A1FBF76D
:104D7000C9FA05A8FBF752FBC0B26071022802D342
:104D8000404684F80580C1B22620FDF7F8F8617925
:104D9000ACA008F0EBF9AFF2E4413F48FBF76AFA48
:104DA000A0B105AB0AAA68A1FBF7ACFA05A8FBF70E
:104DB00035FB10F0FF00A07100D0A771A17927206A
:104DC000FDF7DDF8A179ACA008F0D0F9AFF21051F1
:104DD0003148FBF74FFAA0B105AB0AAA5AA1FBF77D
:104DE00091FA05A8FBF71AFB10F0FF00E07100D064
:104DF000E771E1792820FDF7C2F8E179A8A008F071
:104E0000B5F9B0A12448FBF735FA80B105AB0AAA81
:104E10004DA1FBF777FA05A8FBF700FBC1B2E170E3
:104E20000520FDF7ACF8E178A94808F09FF9A9A1A1
:104E30001948FBF71FFAC8B105AB0AAA42A1FBF754
:104E400061FA05A8FBF7EAFA10F0FF0FA34805D0B6
:104E50000122402102F095F9A1A104E000224021A5
:104E600002F08FF9A1A121A008F080F9A2A10A48BF
:104E7000FBF700FA60B105AB0AAA33A1FBF742FACF
:104E800005A8FBF7CBFA10F0FF0F4FF4004137E114
:104E900045E1000046000020EC0400205345545F2B
:104EA00052544300255B5E3D5D3D255B5E2D5D2DCF
:104EB000255B5E2D5D2D255B5E205D20255B5E3ACA
:104EC0005D3A255B5E3A5D3A255B5E3A5D00000027
:104ED00034000020380000204C030020CAB1D6D393
:104EE000C9E8D6C3B2CECAFD3A00000025730D0A48
:104EF00000000000C4EAD4C2C8D5CAB1B7D6C3EB1B
:104F00003A253034642D253032642D25303264202A
:104F1000253032643A253032643A253032640D0A45
:104F2000000000005265737461727400B5C8B4FD6E
:104F3000CFB5CDB3B8B4CEBB210000005072696EBE
:104F4000745F4F4E00000000255B5E3D5D3D2573A4
:104F5000000000005072696E745F4F4E3A25642065
:104F6000313A343835CAFDBEDD20323ABCC6CAFDFE
:104F7000CAFDBEDD0D0A00005072696E745F436F9A
:104F80006E66696700000000CFB5CDB3C5E4D6C337
:104F9000D0C5CFA2B4F2D3A1210000005072696E37
:104FA000745F4F4646000000CFB5CDB3B4F2D3A135
:104FB000D0C5CFA253746F7021000000466F726D90
:104FC00061745F4545524F4D000000004545524F0A
:104FD0004DB8F1CABDBBAF2100000000434E435F96
:104FE000494E554D0000000054494D335F43415038
:104FF000545552455F56414C313D25640D0A000021
:10500000434E435F5570547970653D256420303AB6
:10501000B2BBC9CFB1A820313AB1E4BBAFC9CFB15F
:10502000A820323AB6A8CAB1C9CFB1A80D0A00006B
:10503000434E435F557054696D653D2564C3EB0D68
:105040000A000000434E435F59656C6C6F773D2545
:105050006420303AB3A3C1C1BDE1CAF820313AC9D6
:10506000C1CBB8BDE1CAF82020323AC2F6B3E5BCE4
:10507000C6CAFD0D0A000000434E435F4752454536
:105080004E3D256420303AB3A3C1C1D4CBD0D0204B
:10509000313AC9C1CBB8D4CBD0D00D0A0000000042
:1050A000434E435F5245443D256420303AB3A3C18B
:1050B000C1B9CAD5CF20313AC9C1CBB8B9CAD5CF49
:1050C0000D0A0000525334383554797065000000E1
:1050D000A81B02084F555431000000000010014089
:1050E0004F5554315F4F4E21000000004F55543151
:1050F0005F4F4646210000004F555432000000002B
:10510000FE4804D0012202F03CF8FDA103E0002299
:1051100002F037F8FDA1AFF22C2008F027F8AFF627
:105120005801FD48FBF7A6F888B105AB0AAAAFF213
:10513000E811FBF7E7F805A8FBF770F9C1B2217297
:105140002120FCF71CFF217AF44808F00FF8AFF695
:105150005C01F148FBF78EF888B105AB0AAAAFF203
:105160001821FBF7CFF805A8FBF758F9C1B2617217
:105170002220FCF704FF617AE94807F0F7FFAFF659
:10518000AC01E548FBF776F8C8B105AB0AAAAFF267
:105190004821FBF7B7F805A808F046FDFBF74EFCE1
:1051A00020621C9004221CA90620FCF7D7FE206A6E
:1051B000FBF701FC02460B46DAA007F0D7FFAFF67B
:1051C000DC01D548FBF756F8C8B105AB0AAAAFF227
:1051D0008821FBF797F805A808F026FDFBF72EFCC1
:1051E00060621C9004221CA90A20FCF7B7FE606ACA
:1051F000FBF7E1FB02460B46CFA007F0B7FFAFF687
:105200000011C548FBF736F8C8B105AB0AAAAFF2E2
:10521000C821FBF777F805A808F006FDFBF70EFCA0
:10522000A0621C9004221CA90E20FCF797FEA06A25
:10523000FBF7C1FB02460B46C4A007F097FFAFF691
:105240003011B548FBF716F8C8B105AB0AAAAFF2A2
:105250000831FBF757F805A808F0E6FCFBF7EEFB72
:10526000E0621C9004221CA91220FCF777FEE06A81
:10527000FBF7A1FB02460B46B9A007F077FFAFF69C
:105280006011A548FAF7F6FFD8B105AB0AAAAFF24C
:105290004831FBF737F805A8FBF7C0F8C0B256460F
:1052A0008AF80000032802D90320307001E000B919
:1052B000377031781620FCF762FE3178ADA007F028
:1052C00055FFAFF698119448FAF7D4FFB8B105AB83
:1052D0000AAAAFF28C31FBF715F805A8FBF79EF888
:1052E00010F0FF005E468BF8000000D13770317877
:1052F0001720FCF744FE3178A2A007F037FFAFF685
:10530000C4118548FAF7B6FFB0B105AB0AAAAFF2EF
:10531000C831FAF7F7FF05A8FBF780F89E4E022286
:105320001CA9308080B2ADF870001820FCF716FE82
:1053300031889AA007F01AFFAFF6F0117648FAF715
:1053400099FFD8B105AB0AAAAFF20441FAF7DAFF28
:1053500005A8FBF763F8964E80B21428308001D977
:10536000142030803088ADF8700002221CA91A2069
:10537000FCF7F4FD31888FA007F0F8FEAFF620218E
:105380006548FAF777FFC0B105AB0AAAAFF248410A
:1053900000E001E2FAF7B6FF05A8FBF73FF88A4EF6
:1053A00010F0FF00307000D1377031781C20FCF70E
:1053B000E6FD317885A007F0D9FEAFF64C215648BE
:1053C000FAF758FF4FF0080AC8B105AB0AAAAFF2C6
:1053D0008841FAF797FF05A8FBF720F87F4E10F0F9
:1053E000FF00307023D0082801D986F800A031785A
:1053F0001D20FCF7C4FD317879A007F0B7FEAFF6A9
:105400007C214548FAF736FFF8B105AB0AAAAFF29E
:10541000C841FAF777FF05A8FBF700F8754EC0B250
:105420000828307005D2504686F800A005E0377095
:10543000DDE7092801D909203070C1B21E20FCF730
:105440009EFD31786CA007F091FEAFF6B021324896
:10545000FAF710FFC8B105AB0AAAAFF21451FAF778
:1054600051FF05A8FAF7DAFF694E10F0FF0030701F
:1054700041D0022801D986F8008031781F20FCF73E
:105480007EFD317863A007F071FEAFF6DC21224883
:10549000FAF7F0FEC8B105AB0AAAAFF25451FAF719
:1054A00031FF05A8FAF7BAFF5F4E10F0FF00307029
:1054B00022D0032801D90320307031782020FCF756
:1054C0005EFD317859A007F051FEAFF60831124861
:1054D000FAF7D0FE70B105AB0AAAAFF29451FAF711
:1054E00011FF05A8FAF79AFF554E80B2B0F57A6F12
:1054F0003080A7E0B6E052E153E10000000C01402B
:105500004F5554325F4F4E21000000004F5554322A
:105510005F4F464621000000EC0400203C1C0208BE
:10552000881C02084144315F50687956616C75658A
:10553000313D25660D0A00004144315F50687956BF
:10554000616C7565323D25660D0A00004144325F8D
:1055500050687956616C7565313D25660D0A00000D
:105560004144325F50687956616C7565323D2566FD
:105570000D0A0000536C6176655F4E756D3D2564C4
:105580000D0A00004D61737465725F414444523DE1
:1055900025640D0A00000000E801002053746172C8
:1055A00074416464723D253034780D0A00000000B7
:1055B000DA01002056616C75654F724C656E746837
:1055C0003D253034780D0A00D6010020536C6176F9
:1055D000655F414444523D25640D0A00EA01002004
:1055E0004D6F6462757342617564526174653D25E7
:1055F000640D0A00EB0100204D6F64627573576FF4
:1056000072644C656E6774683D25640D0A00000085
:10561000EC0100204D6F6462757353746F704269C2
:1056200074733D25640D0A00ED0100204D6F646226
:1056300075735061726974793D25640D0A0000002C
:105640000601002002D949F6404030803088ADF88C
:10565000700002221CA92D20FCF780FC318852A08A
:1056600007F084FD55A15648FAF704FE88B155A10C
:10567000FAF700FE68B1544A54A1401CFAF742FE02
:10568000514A52A12F9807F081FD4F4950A007F0D1
:105690006DFD52A14A48FAF7EDFD68B105AB0AAAC3
:1056A000AFF25C71FAF72EFE05A8FAF7B7FE0146D5
:1056B00060634DA007F05AFD4FA14148FAF7DAFDAB
:1056C00068B105AB0AAAAFF28071FAF71BFE05A814
:1056D000FAF7A4FEC1B2A17249A007F047FD4DA19F
:1056E0003748FAF7C7FD78B136A1FAF7C3FD58B1CC
:1056F0004B4A36A1401CFAF705FE494949A007F07C
:1057000035FD474807F04CF84AA12D48FAF7B2FD9D
:1057100078B12CA1FAF7AEFD58B1494A2BA1401C33
:10572000FAF7F0FD464947A007F020FD444807F08E
:105730003FF849A12248FAF79DFD78B121A1FAF777
:1057400099FD58B1474A21A1401CFAF7DBFD4549B4
:1057500045A007F00BFD434807F032F846A1184872
:10576000FAF788FD78B117A1FAF784FD58B1454AD8
:1057700016A1401CFAF7C6FD424943A007F0F6FC0B
:10578000404807F005F8B9F800004C46C0F30D0199
:105790000B48FAF764FD258031B0BDE8F08F377013
:1057A0006BE6377089E6000050756C73655F496E73
:1057B00074657276616C3D25640D0A0055524C008B
:1057C000EC0400203D00000068C3002025730000A9
:1057D00055524C3A25730D0A0000000046696C656D
:1057E00053697A650000000046696C6553697A6503
:1057F0003A25640D0A00000055706461746500006C
:10580000557064617465466C6167653A25640D0A7C
:10581000000000005365727665725F495000000019
:105820002F0200205365727665725F49503A2573E6
:105830000D0A00005365727665725F506F727400D6
:10584000280200205365727665725F506F72743A59
:1058500025730D0A00000000557365724E616D6579
:105860000000000066020020557365724E616D6590
:105870003A25730D0A00000050617373576F72640C
:10588000000000007A02002050617373576F726449
:105890003A25730D0A000000F0B5E848ABB08478F3
:1058A00043780278E64881788DE81E00C278437814
:1058B000E4A11EA802F5FA6207F068FC08F0F8FA05
:1058C000E84CE0631EA808F0FBFA0246E6A1E06B94
:1058D00008F0C4FAE7A008F0F3FA0246E8A1E06B8A
:1058E00008F0BCFAE94D0026721CE9A104A807F0F3
:1058F0004DFC05EB8607B86AFBF75DF802460B46E0
:10590000E5A111A807F042FC11A808F0D9FA024657
:1059100004A9E06B08F0A2FA721CE1A104A807F048
:1059200035FCB86DFBF747F802460B46DEA111A81F
:1059300007F02CFC11A808F0C3FA024604A9E06B9A
:1059400008F08CFA761CF6B20C2ECDD30026721C11
:10595000D7A104A807F01AFC05EB8600D0F8880050
:10596000FBF729F802460B46CFA111A807F00EFC61
:1059700011A808F0A5FA024604A9E06B08F06EFA37
:10598000761CF6B2182EE2D3CBA104A807F0FEFBDA
:1059900055F8E80FFBF70FF802460B46BEA111A819
:1059A00007F0F4FB11A808F08BFA024604A9E06B9B
:1059B00008F054FAC1A104A807F0E8FB6868FAF7F8
:1059C000FAFF02460B46B4A111A807F0DFFB11A8AD
:1059D00008F076FA024604A9E06B08F03FFAB8A195
:1059E00004A807F0D3FBA868FAF7E5FF02460B46C8
:1059F000A9A111A807F0CAFB11A808F061FA024694
:105A000004A9E06B08F02AFAAEA104A807F0BEFBD7
:105A1000E868FAF7D0FF02460B46ABA111A807F0E1
:105A2000B5FB11A808F04CFA024604A9E06B08F097
:105A300015FAA7A104A807F0A9FB2869FAF7BBFF8C
:105A400002460B46A0A111A807F0A0FB11A808F080
:105A500037FA024604A9E06B08F000FA9DA104A8F9
:105A600007F094FB6869FAF7A6FF02460B4696A179
:105A700011A807F08BFB11A808F022FA024604A92E
:105A8000E06B08F0EBF994A104A807F07FFBA8698C
:105A9000FAF791FF02460B468BA111A807F076FB9F
:105AA00011A808F00DFA024604A9E06B08F0D6F937
:105AB0008AA104A807F06AFBE869FAF77CFF0246AE
:105AC0000B4679A111A807F061FB11A808F0F8F9BD
:105AD000024604A9E06B08F0C1F981A104A807F00F
