:020000040801F1
:10000000F8850020DD010108CBA20108558A01080E
:10001000419B01086720010805B3010800000000AA
:100020000000000000000000000000004501010881
:10003000F543010800000000890101086DAB0108CB
:10004000F7010108F7010108F7010108C1A601083D
:10005000F7010108F7010108F7010108F70101089C
:10006000F7010108F7010108F7010108F70101088C
:10007000F7010108F7010108F7010108F70101087C
:10008000F7010108F7010108F7010108F70101086C
:10009000F7010108F7010108F7010108F70101085C
:1000A000F70101083DAC0108F7010108F70101085B
:1000B00081AC01088DAC0108F7010108F7010108C6
:1000C000F7010108F7010108F7010108F70101082C
:1000D000F70101085DB20108F7010108B1B201089A
:1000E000F7010108F7010108F7010108F70101080C
:1000F000F7010108F7010108F7010108F7010108FC
:10010000F7010108F7010108F7010108F7010108EB
:100110000DAF0108F7010108F7010108F701010817
:10012000F7010108F7010108F7010108F7010108CB
:10013000DFF80CD000F090FE00480047A9C4010889
:10014000F8850020224B19680868B0E8F00F80F3AA
:100150000988BFF36F8F4FF0000080F311884EF0D5
:100160000D0E70470000000006480068006880F32C
:10017000088862B661B6BFF34F8FBFF36F8F00DFA1
:1001800000BF00BF08ED00E0EFF30980BFF36F8F01
:100190000F4B1A6820E9F00F106008B54FF05000BF
:1001A00080F31188BFF34F8FBFF36F8F0EF088FE7F
:1001B0004FF0000080F31188BDE808401968086816
:1001C000B0E8F00F80F30988BFF36F8F704700BF6E
:1001D00074000020EFF30580704700000648804758
:1001E00006480047FEE7FEE7FEE7FEE7FEE7FEE71C
:1001F000FEE7FEE7FEE7FEE7F5AB01083101010887
:10020000202A04DB203A21FA02F00021704721FA6B
:1002100002F3D040C2F120029140084319467047D2
:10022000A0F14101192900D82030704740EA0103AC
:100230009B0703D009E008C9121F08C0042AFAD29C
:1002400003E011F8013B00F8013B521EF9D2704760
:10025000D2B201E000F8012B491EFBD27047002208
:10026000F6E710B513460A4604461946FFF7F0FFB5
:10027000204610BD30B505462A460B4612F8010B44
:1002800013F8014B08B1A042F8D01CB1002802D0ED
:100290006D1CF1E7284630BDCAB2401E10F8011FA0
:1002A0008A4202D00029F9D100207047421C10F880
:1002B000011B0029FBD1801A704730B5044600208D
:1002C000034600E05B1C934203D2E05CCD5C401B24
:1002D000F8D030BD034611F8012B00F8012B002A9D
:1002E000F9D11846704730B505460020034600E0B6
:1002F0005B1C934205D2EC5CC85C201A01D1002C37
:10030000F6D130BD0FB400B58DB010A909900B9097
:1003100000914FF0FF300A9000200C9005480690A5
:10032000054807906A4609A80F9900F01DFC0DB01A
:100330005DF814FB850B0108A30B01082DE9FF5F95
:10034000D2E901A74FF00008916999461446DDF8FB
:1003500038B0464601988847054659EA0B0005D053
:1003600009E0A169761C019888470546216A28465C
:1003700088470028F5D1681C03D05FEACA7005D011
:1003800015E04FF0FF3004B0BDE8F09F2068011D7C
:100390002160D0F800800AE05FEACA7001D108F855
:1003A000015BA169761C7F1E019888470546002FD6
:1003B0001ADD681C18D0B9F1000F0DD0E81705EB55
:1003C000D060421120F01F0059F822102A1A012093
:1003D00090400142E0D107E0BBF1000FDCD1216A7F
:1003E000284688470028D7D0E16901988847BBF1A3
:1003F000000F07D1002E05DD5FEACA7002D100218F
:1004000088F80010A068B84203DDBBF1000F03D0EC
:1004100017B16FF00100B6E73046B4E770B5064695
:100420000BF000F8046805460A220021304600F06F
:1004300017FC2C6070BDF0B480EA0102D40F4200BA
:10044000B2EB410F02D20246084611464A0042D0A2
:10045000C30DDDB2C1F3C752AD1A202D35DAC1F399
:10046000160141F4000204B15242C5F1200602FA1D
:1004700006F12A411044B3EBD05F23D0C4B1012D63
:10048000A0EBC35009DCF0BC4FF0004202EAC352BB
:10049000DBB200F5000000F024BC400000F18070E9
:1004A00000EBC350A0F1807040EAD170490009E030
:1004B000490841EAC071A0EBC35000F500004008B4
:1004C00000EBC350F0BC00F003BC6142012202EB20
:1004D0004101001BF6E7F0BC704781F00041AAE73C
:1004E00080F00040A7E780EA010210B502F0004367
:1004F000400022D04A001FD0010E01EB1261C0F370
:100500005600C2F3560240F4000042F40002A0FB81
:10051000022000047F39140400D0401C50EA12402D
:1005200001D44000491EC2B20C0604EBD010401C9E
:100530004008802A02D003E0002010BD20F0010016
:10054000002900DA0020184310BD30B480EA01020F
:1005500002F0004530F0004221F0004013D090B18D
:10056000C30DD40DC2F31601C0F31600E41A41F412
:10057000000140F400027D34914201D3641C00E08C
:100580004900002C02DA30BC002070474FF4000014
:100590000023914201D3891A034340084FEA4101E5
:1005A000F7D151B1914202D14FF0004105E002D2A2
:1005B0004FF0010101E06FF0010103EBC45028444A
:1005C00030BC00F085BB420005D0C0F3C752524298
:1005D000914201DC0020704700EBC15070472DE9CB
:1005E000FE4F804681EA0300C00F0C46009021F0C8
:1005F000004123F00045B8EB0200A94105D2404676
:10060000214690461C460B46024623F0004010430C
:1006100047D0270DC7F30A00C3F30A510290401ACE
:10062000019040286BDAC3F3130040F4801B00985C
:10063000924620B10023D2EB030A63EB0B0B019827
:100640005946C0F14002504600F067FA06460D4692
:1006500050465946019A00F06FFA10EB08006141CC
:10066000002487EA115284EAE7731A4340D0009AC3
:1006700062B3019A012A4FEA075215DC001B61EBB5
:1006800002014FF0004202EA0752CDE90042001C8D
:1006900041F5801132462B4600F060FB03B0BDE807
:1006A000F08F40462146F9E7001B61EB0201001C78
:1006B00041F5801300185B412018A2F5001747EBA5
:1006C000030140EAD570B6196D4111E06D084FEA9B
:1006D000360645EAC0754FEA0752001B61EB02017E
:1006E000001C41F5801149084FEA300000195141C2
:1006F00032462B4603B0BDE8F04F00F020BB009817
:10070000012240000023D0EB020263EBE07300986B
:1007100021464FEAE074B8EB000061EB0401E9E721
:1007200083F000435BE781F0004158E72DE9FE4F7D
:1007300081EA030404F0004421F0004100944FF0EA
:10074000000B23F0004350EA01045ED052EA030498
:100750005BD0C3F30A54C1F30A552C44A4F2F3341A
:100760000194A0FB0254C1F3130141F48011C3F3BF
:10077000130343F4801301FB024400FB034E840A7D
:10078000970A44EA815447EA8357A4FB0768029515
:100790008D0A05FB07854FEA932C04FB0C542705B3
:1007A000029D4FEA065847EA1637B5EB08056EEB8F
:1007B000070C870E920E47EA811742EA8312A7FBC5
:1007C0000201B6EB0B0164EB00042B0D43EA0C3382
:1007D0005E1844EB1C50DA465146E7FB0201C5F3B4
:1007E00013044FEA0B3343EA14534FEA0432019CDB
:1007F00043EA0603A4F10C040294009CCDE900B482
:1008000000F0ACFA03B0BDE8F08F00200146F9E734
:100810002DE9F04D81EA030404F0004B21F000457E
:1008200014464FF0000A23F0004150EA050220D0A0
:1008300054EA01021DD0C5F30A570246C5F313035B
:10084000C1F31300C1F30A5640F4801543F480133A
:10085000A7EB0608101BD64608F2FD3873EB05001F
:1008600002D308F1010801E092185B41B8F1000FD2
:1008700003DA00200146BDE8F08D00204FF480111E
:10088000064684460EE0171B73EB050705D3121BC3
:1008900063EB050306434CEA010C49084FEA3000BC
:1008A00092185B4150EA0107EDD152EA030012D0E1
:1008B00082EA040083EA0501084305D0101BAB411E
:1008C00006D20122002306E000224FF0004302E09E
:1008D0006FF0010253101AEB06004CEB085110EBBD
:1008E0000A0041EB0B01BDE8F04D00F028BA962359
:1008F0000022114600F0F5B90EB5C10F80EAE07094
:100900000844CA07002140F233438DE80E000A462E
:100910000B4600F023FA03B000BD0EB540F23341A0
:1009200002910021CDE900110A460B4600F016FAAB
:1009300003B000BD70B5C1F30A5201F000450024B8
:10094000C1F3130140F2FF3341F480119A4201DAFE
:10095000002070BD40F233439A42A2F2334203DCDE
:100960005242FFF74DFC00E090402C43F1D0404252
:1009700070BDC1F30A5210B5C1F3130140F2FF3349
:1009800041F480119A4201DA002010BD40F2334355
:100990009A42A2F2334203DC5242FFF731FC10BD0F
:1009A000904010BD00F0004230F000400AD0C10D70
:1009B00001F56071C0F3160042EA0151C208400718
:1009C00011437047002001467047000030B5041EF7
:1009D00071F1000404DB4FF00044404264EB01017C
:1009E000141E73F1000405DB1C464FF00043524215
:1009F00063EB04038B4208BF824230BD30B5041E56
:100A000071F1000404DB4FF00044404264EB01014B
:100A1000141E73F1000405DB1C464FF000435242E4
:100A200063EB0403994208BF904230BD01F00043DC
:100A300030B421F0004150EA010206D00A0DA2F5BF
:100A40006072C1F31301002A02DC30BC0020704741
:100A5000440F44EAC104C100E01830BC00EBC250AE
:100A600000F036B9002801DBC0F10040002901DBAD
:100A7000C1F1004181427047002801DBC0F1004014
:100A8000002901DBC1F100418842704730B50B46B7
:100A9000014600202022012409E021FA02F59D42AE
:100AA00005D303FA02F5491B04FA02F52844151E82
:100AB000A2F10102F1DC30BD2DE9F05F0546002016
:100AC00092469B4688460646814640241BE02846BF
:100AD000414647462246FFF793FB53465A46C01A03
:100AE000914110D311461846224600F016F82D1AEF
:100AF00067EB01084F4622460120002100F00DF867
:100B000017EB00094E41201EA4F10104DFDC48462A
:100B100031462A464346BDE8F09F202A04DB203AAE
:100B200000FA02F1002070479140C2F1200320FA40
:100B300003F3194390407047202A06DBCB17203A75
:100B400041FA02F043EAE07306E041FA02F3D040D2
:100B5000C2F12002914008431946704702681144CF
:100B60001378016018467047D16004495161044907
:100B7000116200211161114600F08EB95D0B010870
:100B8000850E0108426842B1016811F8013B23B1AA
:100B9000521EC0E90012184670470121C160881E2C
:100BA000704742685AB1C368016843B983688B4291
:100BB00005D0491E521CC0E90012002070474FF0BA
:100BC000FF3070470FB4002300B589B00CA9009125
:100BD0000B996FF00042CB601E4B06931E4B0793A0
:100BE0000423CDE901321D4A089202466B460020DB
:100BF00000F07CFB09B05DF814FB70B586B00646CA
:100C00004FF0FF300091CDE90101002015460C4660
:100C100004903246694604A8FFF7D4FF02460498C0
:100C2000211825B108B1084600E020462860049844
:100C300000280DD0002A02DD0098884208D0081B49
:100C40000094CDE901043246694604A8FFF7BAFFD3
:100C500006B070BD850B0108A30B0108850E0108C5
:100C60002DE9F04791460F4680460446002614F8C9
:100C7000015B2DB100F002F90068405DC007F6D1BC
:100C80002B2D02D02D2D18D0641E4A463946204601
:100C900000F048FC27B13968A14201D1C7F80080B3
:100CA00071054FF002040BD54042002803DD0AF025
:100CB000B9FB0460A007BDE8F08746F48066E4E76E
:100CC0000028F8DA0AF0AEFB04606FF00040F2E7AB
:100CD0000029A8BF7047401C490008BF20F0010050
:100CE000704710B4B0FA80FC00FA0CF050EA01042E
:100CF00004BF10BC704749B1CCF1200421FA04F4C0
:100D000011FA0CF118BF012121430843A3EB0C0198
:100D1000CB1D4FEA00614FEA102042BF002010BCFB
:100D2000704700EBC35010440029A4BF10BC7047AB
:100D3000401C490008BF20F0010010BC704710B5EE
:100D4000141E73F1000408DA401C41F100019218EE
:100D50005B411A4301D120F0010010BD2DE9F04D97
:100D600092469B4611B1B1FA81F202E0B0FA80F2EC
:100D700020329046FFF7D1FE04460F4640EA0A00B3
:100D800041EA0B0153465A46084313D0114653EA31
:100D9000010019D0C8F140025046FFF731FA05466C
:100DA0000E46504659464246FFF7B7FE084305D067
:100DB000012004E020463946BDE8F08D00200543BF
:100DC00046EAE0762C4337430A986305E40AA0EB31
:100DD00008000022FD0A44EA47540A3002D50020E8
:100DE0000146E9E7010510196941DDE908450019E7
:100DF0006941BDE8F04DA2E770B521F0004303431F
:100E00000CD0C1F30A550024D5EB040564EB0403B0
:100E1000D617AD1AB34102DB0020014670BD201881
:100E200041EB025170BDC1F30A52C1F3130140F20C
:100E3000FF3341F480119A4202DA002001467047E4
:100E400040F233439A42A2F2334202DC5242FFF7AD
:100E5000D7B9FFF762BE0000064C074D06E0E06818
:100E600040F0010394E8070098471034AC42F6D3F1
:100E7000FFF762F908F7010828F7010800487047F2
:100E8000ACF5010810B50446FFF7F8FF0068005DF7
:100E900000F0010010BD00002DE9F34F8BB04FF0C2
:100EA000000801F10C000C464FF0010B46460DF115
:100EB000080A01906269012101989047051E2DD012
:100EC000252D2CD0216A8847C0B162690121019883
:100ED0009047216A88470028F7D1411E626901982E
:100EE000904700E0761CA1690B988847216A8847E3
:100EF0000028F7D1E1690B988847DBE7A1690B98D7
:100F000088470746A84201D1761CD3E7E1690B98D0
:100F100088477F1C02D1B8F1000F6FD046E100274F
:100F200062693D463946019890472A2804D1626992
:100F30000121019890470125DFF88492626901211F
:100F400001989047A0F130010A290AD24F45E5DC0B
:100F500007EB870100EB4107303FDFD445F0100578
:100F6000ECE7E90601D46FF000476C280AD04C2862
:100F700014D0682815D06A280DD074281CD07A287F
:100F80001AD01DE062690121019890476C2802D0B7
:100F900045F0040514E045F002050DE045F020059C
:100FA0000AE06269012101989047682802D045F063
:100FB000080505E045F40065626901210198904744
:100FC000C4E9015765283DD019DC58287AD00CDCDB
:100FD000452837D004DC252826D0412831D131E0FE
:100FE00046282FD047282CD12CE05B2877D06128C9
:100FF00028D063287CD0642823D15AE0D0E06F2821
:1010000048D008DC66281DD067281BD0692821D06D
:101010006E2816D127E0702845D0732868D075282F
:1010200047D078280DD14DE0A1690B988847054637
:1010300025283FF469AFE1690B9888476D1C3FF4A0
:101040006AAFB3E023466A466FF001000B9900F0E7
:101050004DF99EE045F040006060A80723464FF040
:10106000000236D43EE0E8077FF447AF2068011D58
:1010700021600068290501D506701BE7290701D505
:10108000068017E7A90703D5F117C0E9006111E74A
:1010900006600FE745F040006060A80723464FF068
:1010A000080216D41EE040F60E0125EA0100606039
:1010B00016E045F040006060A80723464FF00A02A2
:1010C00007D40FE045F040006060A80708D523462C
:1010D00010226FF001000B99AFF3008059E007E098
:1010E000234610226FF001000B99AFF3008050E00F
:1010F0004FF000094F464B46632802D05B2806D0CC
:1011000040E0E80601D40120A06001273AE06269CE
:101110000121019890475E2805D14FF001096269CD
:10112000494601989047216939B900210A4653463A
:1011300043F82120491C0829FADBB0B3216969B9B9
:10114000C11700EBD16253110AEB830122F01F0299
:10115000821A01200B68904003430B6062690121F1
:10116000019890475D28E8D1B9F1000F09D000201F
:10117000514651F82020D24341F82020401C082835
:10118000F7DB02AB224600976FF001000B99FFF7E7
:10119000D5F800280CDA401C08D1BBF1000F05D0AF
:1011A0004FF0FF300DB0BDE8F08FFFE74046F9E7A4
:1011B000E90701D108F1010806444FF0000B79E678
:1011C000CCCCCC0C2DE9FF4F087883B09946FF2892
:1011D00005D0491C2D2804D00024002008E0002060
:1011E0000BE00124F9E700EB800003EB4000491C11
:1011F0000B78FF2BF7D104B14042002302931478FF
:1012000019461D462D2C01D02B2C04D1521C2D2CFF
:1012100013D000240294AA461478FF2C0FD00A257C
:10122000A3FB057801FB05814FF0000C03FB0C11BB
:10123000521CE3194AEB0101EEE70124EAE781447D
:1012400053EA010002D019F5C87F06DA039800219D
:10125000C0E9001107B0BDE8F08F0025AE4E2F4663
:10126000DFF8B882184600F00BFACDE90001B9F1B9
:10127000000002DAC9F1000400E004460023A74A96
:101280001AEB030B42EB045A12E0E00707D02A46A0
:10129000334638464146FFF749FA074688462A460C
:1012A000334610461946FFF741FA05460E466410CC
:1012B000002CEAD1DDE90001B9F1000F5A4653468E
:1012C00006DAFFF7A5FA3A464346FFF7A1FA05E02A
:1012D000FFF72CFA3A464346FFF728FA029A0AB17A
:1012E00081F00041039AC2E90001B3E72DE9FF4F05
:1012F0001F468DB0D7E901464FF0FF382E204546F6
:101300004FF000090B90B9696D1C0E988847396A37
:10131000824688470028F6D1BAF1FF3F0AD024F46C
:10132000D064002E11DDBAF12B0F08D0BAF12D0FC9
:101330000BD102E0404611B08DE744F48064B969F6
:101340006D1C0E9888478246761E6946600501D559
:101350002D2000E02B208DF8000001F1010B0DF194
:10136000200809E0B9696D1C0E98884782460F98DD
:1013700044F40074761E0560002E02DDBAF1300FD1
:10138000F0D00B998A453ED144F0800406E00F99D5
:10139000681CA9F1010944F400740860B9696D1C66
:1013A000761E0E98884782463028F0D02BE00B99A5
:1013B0008A4505D1200603D444F08004761E18E047
:1013C00050460AF087F908B30DF11301761E44F474
:1013D00000748B4508D2AAF130000BF8010B2006EF
:1013E00007D5A9F1010003E0200602D409F10100AC
:1013F0008146A00502D50F99681C0860B9696D1C6B
:101400000E9888478246002ED1DC53E0002E51DD35
:10141000BAF1650F02D0BAF1450F4BD1A00549D5FD
:10142000B9696D1C24F44074761E0E988847824674
:10143000002E0CDD2B2804D0BAF12D0F07D144F477
:101440008074B9696D1C0E9888478246761EE00547
:1014500001D52D2100E02B2108F8011BCDF82C80AF
:1014600021E00DF12901761E44F4007488450CD268
:10147000AAF1300010F0FF0088F8000002D10B99AB
:10148000884509D908F1010806E0E00501D524489E
:1014900001E042F20F708146B9696D1C0E988847D1
:1014A00082460F980560002E04DD50460AF012F9BE
:1014B0000028D6D1F9690E988847FF208BF80000E4
:1014C00088F800000020069007904B466A4608A95D
:1014D00006A8FFF777FEA00502D46FF001002AE707
:1014E00014F0240F0AD0E00714D1DDE906123868A1
:1014F000031D3B600068C0E900120BE0DDE9060156
:10150000FFF794FA0146E00704D13868021D3A60FB
:101510000068016028460EE7000014400000F03F1C
:10152000F1D8FFFF2DE9F05F8246007800271546CD
:101530008B460AF10104B946302801D09DB113E071
:1015400014F8010B0127782803D0582801D045B1A1
:101550000AE00DB1102D07D10027102514F8010B5A
:1015600002E0082500E00A250026B0460EE005FB53
:10157000080005FB06F1012701EB10461FFA80F871
:10158000B6F5803F00D3B94614F8010B294600F0A8
:1015900069F80028EBDABBF1000F05D00FB1641E2B
:1015A00000E05446CBF80040B9F1000F06D009F036
:1015B00039FF02210160C81EBDE8F09F48EA0640DD
:1015C000FAE72DE9F04D00231A461B1A8A4103DB86
:1015D00000200146BDE8F08DC1F30A52C1F31301AA
:1015E00041F480154FF0000BD10702D100186D4176
:1015F000521E0027044640F2FF11384601EB620AF2
:101600003E468046024600204FF48011FEF7F8FD6A
:10161000C2197141BB1846EB0100B4EB030C75EB2A
:10162000000C04D3E41A65EB000517460E46241996
:1016300008F101006D4180463428E3DDF91946EBDD
:101640000600091BA84103D24FF0FF32134601E008
:10165000002213461BEB070046EB0A51BDE8F04D94
:10166000FFF76DBB3A2800D2303820F02002412A23
:1016700001D3A2F13700884201D34FF0FF30704709
:101680000EB540F2334202920022CDE90022134609
:10169000FFF764FB03B000BD70B58C1810F8015B58
:1016A00015F0070301D110F8013B2A1106D110F8FB
:1016B000012B03E010F8016B01F8016B5B1EF9D1FF
:1016C0002B0705D40023521E0DD401F8013BFAE785
:1016D00010F8013BCB1A921C03E013F8015B01F8F0
:1016E000015B521EF9D5A142D8D3002070BD000085
:1016F0002DE9F05FFC48FE4DFE4F0178FB48FE4EA1
:10170000FE4C00884FF0000A4FF0814BFC4A012943
:10171000D2F828900CD002296CD003297ED004295D
:101720007DD005297CD006297BD000297AD0CEE156
:10173000FFF7F3F80022F34BFEF7F8FF0022F24B1D
:10174000FFF766F8FFF772F9DFF8B4834946C8F887
:101750001C00FFF791F907D2D8F82810D8F81C0020
:10176000FEF769FEC8F81C00D8F82810D8F81C004D
:10177000FFF778F907D8D8F82410D8F81C00FEF73E
:10178000ACFEC8F81C00B8F81000FFF7B0F88146AE
:10179000B8F81400FFF7ABF8D8F81C10FEF7A3FE5A
:1017A000DA49FEF7A0FE4946FEF7CFFED849206091
:1017B0000144B1F5002F03D8D5484042206006E02F
:1017C000D4490844B0F5800F01D8C4F800B02968A6
:1017D00038688846FEF781FE054659462068FEF7C0
:1017E0007CFE6FF00301FEF7EEFE2946FEF77BFE5E
:1017F00041463FE0FFF791F80022C24BFEF796FF0B
:101800000022C14BFFF704F8FFF710F9DFF8F08270
:101810004946C8F81C00FFF72FF904E02DE073E0FB
:10182000B5E0F8E04FE107D2D8F82810D8F81C004E
:10183000FEF701FEC8F81C00D8F82810D8F81C00E4
:10184000FFF710F907D8D8F82410D8F81C00FEF7D5
:10185000F2FDC8F81C00B8F81400FFF748F8D8F8F3
:101860001C10FEF740FEDFF8B08220603BE0C4F8B9
:1018700000803AE0FEF7DFFD28E1FFF74EF8002296
:10188000A04BFEF753FF00229F4BFEF7C1FFFFF76F
:10189000CDF8DFF86C824946C8F81C00FFF7ECF879
:1018A00007D2D8F82810D8F81C00FEF7C4FDC8F8F5
:1018B0001C00D8F82810D8F81C00FFF7D3F807D878
:1018C000D8F82410D8F81C00FEF7B5FDC8F81C00A5
:1018D000B8F81400FFF70BF8D8F81C10FEF703FE59
:1018E000DFF8388220604045C1DA296838688946C7
:1018F000FEF7F3FD054641462068FEF726FE294621
:10190000FEF7F1FD4946B5E7FFF707F800227D4BEA
:10191000FEF70CFF00227C4BFEF77AFFFFF786F8FC
:10192000DFF8DC814946C8F81C00FFF7A5F807D2AC
:10193000D8F82810D8F81C00FEF77DFDC8F81C0068
:10194000D8F82810D8F81C00FFF78CF807D8D8F87A
:101950002410D8F81C00FEF76EFDC8F81C00B8F87B
:101960001400FEF7C4FFD8F81C10FEF7BCFD4FF0C2
:101970007E512060884200DB2160296838680D466E
:10198000FEF7ABFD2168FEF7AEFD294672E7FEF7D4
:10199000C4FF00225B4BFEF7C9FE00225A4BFEF744
:1019A00037FFFFF743F8DFF858814946C8F81C00B5
:1019B000FFF762F807D2D8F82810D8F81C00FEF715
:1019C0003AFDC8F81C00D8F82810D8F81C00FFF71A
:1019D00049F807D8D8F82410D8F81C00FEF72BFDDA
:1019E000C8F81C00B8F81000FEF781FF8146B8F86F
:1019F0001400FEF77CFFD8F81C10FEF774FD434975
:101A0000FEF771FD4946FEF7A0FDDFF80481206076
:101A1000C8F1000867E7FEF780FF0022394BFEF7A8
:101A200085FE0022384BFEF7F3FEFEF7FFFFDFF8DE
:101A3000D0804946C8F81C00FFF71EF807D2D8F836
:101A40002810D8F81C00FEF7F6FCC8F81C00D8F8DF
:101A50002810D8F81C00FFF705F807D8D8F824108C
:101A6000D8F81C00FEF7E7FCC8F81C00B8F8140012
:101A7000FEF73DFFD8F81C10FEF735FD2849206021
:101A8000884200DB216028680546FEF78BFF804610
:101A9000894629463868FEF720FDFEF783FF054694
:101AA0000F462068FEF77EFF0022164BFEF7B0FEC1
:101AB0002A463B46FEF73AFE42464B46FEF78FFD6E
:101AC000FEF7B4FF02E05046C4F800A030601548AD
:101AD0001549164D0078164F164E174C01283AD06E
:101AE00002287DD0032829E01401002008000020EE
:101AF0002C01002030010020240100201C010020C6
:101B0000E000002000000440E0FFEF4000007A44C5
:101B1000000060BE0000C0BF0000A04000002041E7
:101B200000002040150100200A00002034010020A0
:101B30003801002028010020200100206FD0042857
:101B40006ED005286DD006286CD000286BD1504689
:101B5000C4F800A0A4E00888FEF7DFFE0022E64BF0
:101B6000FEF7E4FD0022E54BFEF752FEFEF75EFFB6
:101B7000DFF88C83C8F82000D8F82810FEF77CFF27
:101B800007D2D8F82810D8F82000FEF754FCC8F87F
:101B90002000D8F82810D8F82000FEF763FF05D8F9
:101BA000D8E90801FEF747FCC8F82000B8F8120091
:101BB000FEF79DFE8146B8F81600FEF798FED8F8AD
:101BC0002010FEF790FCCF49FEF78DFC4946FEF74A
:101BD000BCFCCD4920600144B1F5002F05D800E0E0
:101BE00022E0C9484042206006E0C8490844B0F5F8
:101BF000800F01D8C4F800B0296838688846FEF71D
:101C00006CFC054659462068FEF767FC6FF003013F
:101C1000FEF7D9FC2946FEF766FC41463EE042E06D
:101C200088E0CAE00DE13CE00888FEF776FE00227D
:101C3000B14BFEF77BFD0022B04BFEF7E9FDFEF74E
:101C4000F5FEDFF8BC82C8F82000D8F82810FEF7AF
:101C500013FF07D2D8F82810D8F82000FEF7EBFBC6
:101C6000C8F82000D8F82810D8F82000FEF7FAFEAF
:101C700005D8D8E90801FEF7DEFBC8F82000B8F85F
:101C80001600FEF734FED8F82010FEF72CFCDFF823
:101C9000808220603DE0C4F800803CE0FEF7CBFB92
:101CA0003060BDE8F09F0888FEF737FE0022924BB7
:101CB000FEF73CFD0022914BFEF7AAFDFEF7B6FEB3
:101CC000DFF83C82C8F82000D8F82810FEF7D4FED0
:101CD00007D2D8F82810D8F82000FEF7ACFBC8F8D7
:101CE0002000D8F82810D8F82000FEF7BBFE05D851
:101CF000D8E90801FEF79FFBC8F82000B8F81600E5
:101D0000FEF7F5FDD8F82010FEF7EDFBDFF80482B2
:101D100020604045BFDA296838688946FEF7DDFB58
:101D2000054641462068FEF710FC2946FEF7DBFB1E
:101D30004946B3E70888FEF7F0FD00226E4BFEF738
:101D4000F5FC00226D4BFEF763FDFEF76FFEDFF83A
:101D5000B081C8F82000D8F82810FEF78DFE07D211
:101D6000D8F82810D8F82000FEF765FBC8F8200046
:101D7000D8F82810D8F82000FEF774FE05D8D8E966
:101D80000801FEF758FBC8F82000B8F81600FEF767
:101D9000AEFDD8F82010FEF7A6FB4FF07E51206074
:101DA000884200DB2160296838680D46FEF795FB04
:101DB0002168FEF798FB294670E70888FEF7ADFD1D
:101DC00000224D4BFEF7B2FC00224C4BFEF720FDEB
:101DD000FEF72CFEDFF82881C8F82000D8F828107C
:101DE000FEF74AFE07D2D8F82810D8F82000FEF7F0
:101DF00022FBC8F82000D8F82810D8F82000FEF7F9
:101E000031FE05D8D8E90801FEF715FBC8F8200017
:101E1000B8F81200FEF76BFD8146B8F81600FEF721
:101E200066FDD8F82010FEF75EFB3649FEF75BFB37
:101E30004946FEF78AFBDFF8D0802060C8F1000831
:101E400067E70888FEF769FDDFF8ACA0002253467B
:101E5000FEF76CFC0022294BFEF7DAFCFEF7E6FDEC
:101E6000DFF89C80C8F82000D8F82810FEF704FEA0
:101E700007D2D8F82810D8F82000FEF7DCFAC8F806
:101E80002000D8F82810D8F82000FEF7EBFD05D880
:101E9000D8E90801FEF7CFFAC8F82000B8F8160014
:101EA000FEF725FDD8F82010FEF71DFB1A4920602B
:101EB000884200DB216028680546FEF773FD8046F6
:101EC000894629463868FEF708FBFEF76BFD074692
:101ED0000D462068FEF766FD00225346FEF798FC8B
:101EE0003A462B46FEF722FC42464B46FEF777FB6E
:101EF000FEF79CFDD4E6000000000440E0FFEF4048
:101F0000E000002000007A44000060BE0000C0BF76
:101F10000000A040000020410000204010B5FF213B
:101F2000A02006F0B9FD55280CD05522FF21A02095
:101F300006F0D0FDFF21A02006F0AEFD552801D00F
:101F4000002010BD012010BD70B514460E46054698
:101F500009E0E9B26D1CADB2A02006F09DFD641E43
:101F600006F8010BA4B2002CF3D170BDC1B2A020C1
:101F700006F092BD70B516460D46044607E02A7875
:101F8000E1B2A02006F0A6FD641CA4B26D1C761E72
:101F9000B6B2F4D270BDC0B20A460146A02006F027
:101FA00099BD70B51E46049D044672B61C300CF0F7
:101FB0009EFD2A46314604F12C000CF098FD0020CD
:101FC000206060602072E06060722061606162B6D3
:101FD00070BD2DE9F04115460E46044672B600204C
:101FE000106004F12C0007460CF054FD04280EDBB1
:101FF000042204F1180138460CF080FDA269002A81
:1020000005DD314604F11C000CF078FD286062B655
:10201000BDE8F0812DE9FF411C460E46054672B62B
:102020001C3007460CF04FFD0299884218D905F183
:102030002C0005460CF047FD04280BDD31463846E0
:10204000029A08F071F9042202A9284608F06CF9F6
:10205000002001E04FF0FF30206062B6BDE8FF8154
:102060006FF00100F8E7FEE72DE9F047114C124F41
:102070009046894605464FF48056A04208D1216813
:102080006FF04000086001223146384604F03AFB08
:102090004FF47A7342464946284606F07DFCA54235
:1020A00006D131463846BDE8F047002204F02ABB8D
:1020B000BDE8F0876C0D0020000C01402DE9F04FC9
:1020C000B7B00AF081F8FC490126DFF8F093FC4D27
:1020D000DFF8F0B3DFF8F0A3086100287ED0DFF866
:1020E000D883FAA144460AF053F86061002848D02A
:1020F00032AC2DAB28AA23A98DE81E0000691EABC7
:1021000019AAF4A1FEF7FEF819A8FEF787F9FA4C10
:10211000A0F5FA60E0701EA8FEF780F9607023A8B1
:10212000FEF77CF9A07028A8FEF778F9F34F387015
:102130002DA8FEF773F9787032A8FEF76FF9B87022
:1021400000223946EE4805F0E5FB00222146EC4826
:1021500005F07EFBEBA1F1A009F02CF93878BA78F4
:1021600079788DE80700E178A3786278EDA001F531
:10217000FA6109F01FF998F8030040F0010188F8AE
:102180000310F6A14446D8F810000AF001F8606187
:1021900038B1F4A1E1A009F00DF9E07840F00200B7
:1021A000E070F7A1206909F0F3FF606138B1F8A190
:1021B000DAA009F0FFF8E07840F00400E070FBA13D
:1021C000206909F0E5FF606100284AD0D0E90621C6
:1021D0001046FEF7CEFB10F0FF0100E008E0F548E6
:1021E000E17132D00122402104F08CFAF2A131E0F9
:1021F00009F0C8FF0146F5A009F0DCF809F08CFFF2
:10220000AD4CE060F7A009F08FFF0246FCA1E0684A
:1022100009F058FFE0680AF00BF807460246FDA1F6
:10222000FD4809F0D7F8FD49FD4A03460860002142
:102230000091CDE90112F84AFA49FB480AF031FD54
:1022400038460AF02FF8E068FBE30022402104F052
:1022500059FAF6A1B1A009F0ADF8E07840F0080015
:10226000E070F7A1206909F093FF6061D8B1D0E96F
:1022700006211046FEF77DFB10F0FF02F248E271E6
:102280004FF4004104D0012204F03CFAEFA103E036
:10229000002204F037FAF2A1A0A009F08BF8E07850
:1022A00040F01000E070F3A1206909F071FF606157
:1022B00090B1D0E906211046FEF75BFBF04FC1B2AA
:1022C00005203970FFF767FE3978EE4809F072F89B
:1022D000E07840F02000E070EBA1206909F058FFA1
:1022E000606158B1ECA18DA009F064F8FF210020D5
:1022F000FFF751FEE07840F04000E070EBA120696C
:1023000009F046FF606170B1D0E906211046FEF782
:1023100030FBE94908600146E8A009F04BF8E07895
:1023200040F08000E070EDA1206909F031FF4FF02E
:102330000208606148B3D0E906211046FEF719FB98
:10234000C0B24F4689F80000022802D987F8008001
:1023500008E0012802D0022804D00AE0012009F098
:1023600071FE06E029884FF47A704143012009F09C
:1023700001FE39782320FFF70EFE3978DAA009F044
:1023800019F8207940F001002071E5A1206909F0D9
:10239000FFFE606108B3D0E906211046FEF7E9FAB6
:1023A00080B22880052801D20520288081B24FF410
:1023B0007A704143012009F0DDFD2888ADF8100056
:1023C000022204A92420FFF7D5FD2988D7A008F010
:1023D000F1FF207940F002002071DBA1206909F0B3
:1023E000D7FE6061C0B1D0E906211046FEF7C1FA00
:1023F000D84FC0B20228387002D3404687F8008018
:10240000C1B22620FFF7C7FD3978D3A008F0D2FF6C
:10241000207940F004002071DEA1206909F0B8FEA7
:102420006061B0B1D0E906211046FEF7A2FADC4F98
:1024300010F0FF00387000D03E7039782720FFF789
:10244000AAFD3978D7A008F0B5FF207940F0080040
:102450002071E0A1206909F09BFE6061B0B1D0E974
:1024600006211046FEF785FADC4F10F0FF003870A9
:1024700000D03E7039782820FFF78DFD3978D8A03C
:1024800008F098FF207940F010002071DFA120694A
:1024900009F07EFE606170B1D0E906211046FEF7BA
:1024A00068FAC1B25F468BF800102120FFF773FD78
:1024B0003978D948B2E1B7E170010020100100205D
:1024C0001A010020140100202C0100205345545F04
:1024D00052544300255B5E2D5D2D255B5E2D5D2DE9
:1024E000255B5E205D20255B5E3A5D3A255B5E3AAA
:1024F0005D3A255B5E3A5D00240000202800002044
:1025000008040020D4B6B3CCC5E4D6C3CAB1D6D330
:10251000C9E8D6C3B2CECAFD3A00000025730D0A41
:1025200000000000D4B6B3CCC5E4D6C3C4EAD4C21C
:10253000C8D5CAB1B7D6C3EB3A253034642D25309F
:1025400032642D2530326420253032643A25303211
:10255000643A253032640D0A00000000526573743D
:1025600061727400D4B6B3CCC5E4D6C3B8B4CEBBE4
:10257000B5C8B4FDCFB5CDB3B8B4CEBB2100000013
:102580005072696E745F436F6E6669670000000089
:10259000D4B6B3CCC5E4D6C3CFB5CDB3C5E4D6C3AA
:1025A000D0C5CFA2B4F2D3A1210000004F555431C1
:1025B0000000000000100140D4B6B3CCC5E4D6C37F
:1025C0004F5554315F4F4E21000000004572726F2D
:1025D00072206265666F72653A205B25735D0D0A35
:1025E00000000000506C6561736520636865636B73
:1025F000204A534F4E20466F726D617400000000F8
:102600004A534F4E20466F726D6174206572726F2F
:102610007200000025730000F87B0020E00100201C
:1026200011A30108A2020020006F0020D4B6B3CC91
:10263000C5E4D6C34F5554315F4F464621000000D4
:102640004F55543200000000000C0140D4B6B3CC0A
:10265000C5E4D6C34F5554325F4F4E2100000000F1
:10266000D4B6B3CCC5E4D6C34F5554325F4F4646BB
:102670002100000052533438355479706500000051
:102680000F010020C0F60108466F726D61745F454E
:1026900045524F4D0000000020D4B6B3CC45455202
:1026A0004F4DB8F1CABDBBAF21000000434E435FA0
:1026B000494E554D000000003C010020D4B6B3CC7B
:1026C000C5E4D6C354494D335F4341505455524538
:1026D0005F56414C313D25640D0A0000434E435F77
:1026E0005570547970650000D4B6B3CCC5E4D6C338
:1026F000434E435F5570547970653D256420303AF0
:10270000B2BBC9CFB1A820313AB1E4BBAFC9CFB198
:10271000A820323AB6A8CAB1C9CFB1A80D0A0000A4
:10272000434E435F557054696D650000D4B6B3CC19
:10273000C5E4D6C3434E435F557054696D653D256E
:1027400064C3EB0D0A000000434E435F59454C4CF7
:102750004F57000011010020D4B6B3CCC5E4D6C356
:10276000434E435F59656C6C6F773D256420303A6A
:10277000B3A3C1C1BDE1CAF820313AC9C1CBB8BDCC
:10278000E1CAF820323AC2F6B3E5BCC6CAFD090D6B
:102790000A000000434E435F475245454E0000008B
:1027A00012010020D4B6B3CCC5E4D6C3434E435F78
:1027B000475245454E3D256420303AB3A3C1C1D4AC
:1027C000CBD0D020313AC9C1CBB8D4CBD0D00D0AB0
:1027D00000000000434E435F5245440013010020B7
:1027E000D4B6B3CCC5E4D6C3434E435F5245443D53
:1027F000256420303AB3A3C1C1B9CAD5CF20313A3C
:10280000C9C1CBB8B9CAD5CF0D0A00004144315F68
:10281000547970650000000028F6010808F0CAFD30
:10282000207940F020002071FEA1206909F0B0FC61
:10283000606190B1D0E906211046FEF79AF8FC4F8E
:10284000C1B222203970FFF7A6FB3978F94808F0A9
:10285000B1FD207940F040002071F7A1206909F016
:1028600097FC6061C8B1D0E906211046FEF7DEF89A
:10287000CAF8000004905746042204A90620FFF776
:1028800079FB3868FEF78EF802460B46EEA008F09A
:1028900091FD207940F080002071F2A1206909F0BB
:1028A00077FC6061C0B1D0E906211046FEF7BEF8A2
:1028B000F04F042204A9386004900A20FFF75AFB65
:1028C0003868FEF76FF802460B46EBA008F072FD81
:1028D000607940F001006071EEA1206909F058FCB8
:1028E0006061C0B1D0E906211046FEF79FF8ED4FB8
:1028F000042204A9386004900E20FFF73BFB3868DF
:10290000FEF750F802460B46E7A008F053FD607949
:1029100040F002006071EBA1206909F039FC6061B0
:10292000C0B1D0E906211046FEF780F8E94F042235
:1029300004A9386004901220FFF71CFB3868FEF7EA
:1029400031F802460B46E4A008F034FD607940F00F
:1029500004006071E7A1206909F01AFC6061D0B140
:10296000D0E906211046FEF704F8E54FC0B203286F
:10297000387002D90320387001E000B93E70397810
:102980001620FFF708FB3978DEA008F013FD607908
:1029900040F008006071E1A1206909F0F9FB606175
:1029A000B0B1D0E906211046FDF7E3FFDE4F10F08D
:1029B000FF00387000D13E7039781720FFF7EBFA2E
:1029C0003978DAA008F0F6FC607940F01000607108
:1029D000DDA1206909F0DCFB6061B0B1D0E906211E
:1029E0001046FDF7C6FFDB4F022204A9388080B2F3
:1029F000ADF810001820FFF7BDFA3988D6A008F00E
:102A0000D9FC607940F020006071DAA1206909F0FA
:102A1000BFFB6061E8B1D0E906211046FDF7A9FFD0
:102A2000D84F80B21428388001D9142038803888D3
:102A3000ADF81000022204A91A20FFF79BFA39888A
:102A400000E065E2D0A008F0B5FC607940F04000FD
:102A50006071D4A1206909F09BFB6061B0B1D0E93D
:102A600006211046FDF785FFD14F10F0FF003870AA
:102A700000D13E7039781C20FFF78DFA3978CDA04F
:102A800008F098FC607940F080006071CFA1206967
:102A900009F07EFB6061C8B1D0E906211046FDF760
:102AA00068FFCE4F10F0FF00387021D0082801D900
:102AB0000820387039781D20FFF76DFA3978C8A0E2
:102AC00008F078FCA07940F00100A071CBA120694A
:102AD00009F05EFB6061E8B1D0E906211046FDF720
:102AE00048FFCB4FC0B20828387003D2082004E05A
:102AF0003E70DFE7092801D909203870C1B21E20D5
:102B0000FFF749FA3978C3A008F054FCA07940F0E7
:102B10000200A071C7A1206909F03AFB6061C8B149
:102B2000D0E906211046FDF724FFC64F10F0FF0044
:102B3000387073D0022801D987F8008039781F20B7
:102B4000FFF729FA3978C0A008F034FCA07940F0EA
:102B50000400A071C3A1206909F01AFB6061C8B12B
:102B6000D0E906211046FDF704FFC24F10F0FF0028
:102B7000387054D0032801D90320387039782020C8
:102B8000FFF709FA3978BCA008F014FCA07940F0EE
:102B90000800A071BFA1206909F0FAFA6061E0B1F4
:102BA000D0E906211046FDF7E4FEBE4F80B24FF497
:102BB0007A613880884200D939803888ADF81000B1
:102BC000022204A92D20FFF7D5F93988B6A008F014
:102BD000F1FBA07940F01000A071BAA1206909F0C2
:102BE000D7FA606198B10069B74AAFF2D851FDF7E2
:102BF00089FBB54AAFF2E451B44808F0EBFBB249A7
:102C0000B3A008F0D7FBA07940F02000A071B5A1D7
:102C1000206909F0BDFA606110B169E102E203E2E6
:102C200075E100004144325F547970650000000096
:102C30001501002074F601084144315F506879564F
:102C4000616C756531000000D4B6B3CCC5E4D6C361
:102C50004144315F50687956616C7565313D256638
:102C60000D0A00004144315F50687956616C75650A
:102C70003200000030010020D4B6B3CCC5E4D6C386
:102C80004144315F50687956616C7565323D256607
:102C90000D0A00004144325F50687956616C7565D9
:102CA0003100000034010020D4B6B3CCC5E4D6C353
:102CB0004144325F50687956616C7565313D2566D7
:102CC0000D0A00004144325F50687956616C7565A9
:102CD0003200000038010020D4B6B3CCC5E4D6C31E
:102CE0004144325F50687956616C7565323D2566A6
:102CF0000D0A0000536C6176655F4E756D00000033
:102D0000AA010020D4B6B3CCC5E4D6C3536C617617
:102D1000655F4E756D3D25640D0A00004D6173744D
:102D200065725F4144445200AB010020D4B6B3CC7D
:102D3000C5E4D6C34D61737465725F414444523D2E
:102D400025640D0A000000005374617274416464CC
:102D500072000000AC010020D4B6B3CCC5E4D6C3E9
:102D60005374617274416464723D253034780D0A85
:102D70000000000056616C75654F724C656E74689A
:102D8000000000009E010020D4B6B3CCC5E4D6C339
:102D900056616C75654F724C656E74683D253034B4
:102DA000780D0A00536C6176655F4144445200001F
:102DB0009A010020D4B6B3CCC5E4D6C3536C617677
:102DC000655F414444523D25640D0A004D6F6462C5
:102DD000757342617564526174650000B001002032
:102DE000D4B6B3CCC5E4D6C34D6F6462757342618B
:102DF0007564526174653D25640D0A004D6F64620F
:102E00007573576F72644C656E67746800000000DC
:102E1000B1010020D4B6B3CCC5E4D6C34D6F646213
:102E20007573576F72644C656E6774683D25640DE9
:102E30000A0000004D6F6462757353746F704269CD
:102E400074730000B2010020D4B6B3CCC5E4D6C37D
:102E50004D6F6462757353746F70426974733D256E
:102E6000640D0A004D6F6462757350617269747904
:102E700000000000B3010020D4B6B3CCC5E4D6C333
:102E80004D6F646275735061726974793D25640D8C
:102E90000A00000050756C73655F496E7465727648
:102EA000616C0000EE000020D4B6B3CCC5E4D6C3FC
:102EB00050756C73655F496E74657276616C3D2503
:102EC000640D0A0055524C00346200202666002032
:102ED000D4B6B3CCC5E4D6C355524C3A25730D0ACB
:102EE0000000000046696C6553697A6500000000C7
:102EF000D0E906211046FDF73CFDFE4A0146106070
:102F0000FDA008F057FAA07940F04000A0712069B8
:102F100009F018F9FD4CE07800B10120217901B1E8
:102F200001210843617901B101210843A17901B16F
:102F30000121084375D009F0EFF8E060E078C007A0
:102F400018D0F348877843780278F24881788DE882
:102F50008E00C2784378F0A10CA802F5FA6208F05E
:102F600039FA0CA809F0E0F80246AFF6A021E068B3
:102F700009F0A8F8E078800708D5EFA009F0D4F8A8
:102F80000246AFF62821E06809F09CF8E078400797
:102F90007ED50022EE49EF4804F07AFB0022EE498C
:102FA000EC4804F04EFBEA48877843780278EA4818
:102FB00081788DE88E00C2784378D7A10CA802F5FD
:102FC000FA6208F007FAE54809F0AEF80246E4A113
:102FD000E06809F077F80CA809F0A6F80246E3A12A
:102FE000E06809F06FF8DFF8908398F80000FDF7CB
:102FF00094FC09F07FF80246E0A1E06809F062F86D
:103000004F4699F80000FDF788FC09F073F8024676
:10301000AFF63811E06809F055F83878022805D085
:103020000FE04BE33E7089E53E70A7E52888FDF789
:1030300074FC09F05FF80246AFF61C11E06809F075
:1030400041F8D1480078FDF768FC09F053F80246D2
:10305000AFF60C11E06809F035F8CC480078FDF7C0
:103060005CFC09F047F80246AFF6D801E06809F0C9
:1030700029F8C7480078FDF750FC09F03BF80246F4
:10308000AFF6B001E06809F01DF89BF8000000E021
:10309000C3E008B3FDF741FC09F02CF80246AFF697
:1030A0009401E06809F00EF8DAF80000FDF77AFC08
:1030B00009F020F80246AFF28041E06809F002F81A
:1030C000B4480068FDF76EFC09F014F80246AFF250
:1030D0006C41E06808F0F6FFAF48007808B3FDF7F0
:1030E0001CFC09F007F80246AFF2C841E06808F09E
:1030F000E9FFAA480068FDF755FC08F0FBFF02460F
:10310000AFF27041E06808F0DDFFA5480068FDF708
:1031100049FC08F0EFFF0246AFF25841E06808F0C2
:10312000D1FF98F8000000286BD09E480078FDF78A
:10313000F4FB08F0DFFF0246AFF24841E06808F018
:10314000C1FF99480078FDF7E8FB08F0D3FF02467D
:10315000AFF23841E06808F0B5FF94480088FDF709
:10316000DCFB08F0C7FF0246AFF22441E06808F03C
:10317000A9FF8F480088FDF7D0FB08F0BBFF02468F
:10318000AFF21041E06808F09DFF8A480078FDF733
:10319000C4FB08F0AFFF0246AFF2F831E06808F078
:1031A00091FF85480078FDF7B8FB08F0A3FF0246C1
:1031B000AFF2E831E06808F085FF80480078FDF75D
:1031C000ACFB08F097FF0246AFF2D031E06808F0A0
:1031D00079FF7B480078FDF7A0FB08F08BFF0246E3
:1031E000AFF2B031E06808F06DFF76480078FDF787
:1031F00094FB08F07FFF0246AFF29831E06808F0D8
:1032000061FF71480088FDF788FB08F073FF0246F4
:10321000AFF28031E06808F055FFE07800070AD58A
:10322000E079FDF77AFB08F065FF0246AFF68441CE
:10323000E06808F047FFE078C0060AD5E079FDF7BE
:103240006CFB08F057FF0246AFF60C41E06808F04F
:1032500039FFE07880060BD547480078FDF75DFB25
:1032600008F048FF0246AFF6F431E06808F02AFFA4
:10327000E078400612D555A2AFF668410CA808F0D8
:10328000A9F80CA808F050FF0246AFF60441E06828
:1032900008F018FFE07840F00200E070E0780006E7
:1032A0000BD54B480068FDF738FB08F023FF0246BA
:1032B000AFF60841E06808F005FF2079C0070BD0A1
:1032C00099F80000FDF729FB08F014FF0246AFF65D
:1032D000F431E06808F0F6FE207980077CD5288874
:1032E000FDF71BFB08F006FF0246AFF6CC31E068A5
:1032F00070E071E040010020D4B6B3CC46696C6543
:1033000053697A653A25640D0A00000070010020B7
:103310002800002024000020253034642D25303280
:10332000642D2530326420253032643A25303264F1
:103330003A253032640000007761697420666F724C
:103340002073797374656D20726573657421000054
:103350002B000020080400202E0000204C0100203B
:1033600056657273696F6E5F4E756D004C6F636169
:103370006C5F54696D6500000F01002052533438B2
:10338000355F5479706500001101002012010020A2
:10339000130100203001002015010020340100201D
:1033A00038010020AA010020AB010020AC01002060
:1033B0009E0100209A010020B0010020B1010020F0
:1033C000B2010020B3010020EE0000204F4B0000AE
:1033D0003C01002008F076FE207940070BD5B94863
:1033E0000078FDF79AFA08F085FE0246AFF6A8418C
:1033F000E06808F067FE207900070BD5B248007836
:10340000FDF78BFA08F076FE0246AFF67841E068E9
:1034100008F058FE2079C0060BD5AC480078FDF7BF
:103420007CFA08F067FE0246AFF65841E06808F003
:1034300049FE207980060BD59BF80000FDF76DFA58
:1034400008F058FE0246AFF63C41E06808F03AFE4C
:10345000207940060BD59E480078FDF75EFA08F00B
:1034600049FE0246AFF64401E06808F02BFE2079E1
:1034700000060BD5DAF80000FDF794FA08F03AFEE2
:103480000246AFF64C01E06808F01CFE6079C00708
:103490000BD090480068FDF785FA08F02BFE024635
:1034A000AFF64001E06808F00DFE607980070BD5AB
:1034B00089480068FDF776FA08F01CFE0246AFF670
:1034C0002C01E06808F0FEFD607940070BD58348C9
:1034D0000068FDF767FA08F00DFE0246AFF61C0122
:1034E000E06808F0EFFD607900070BD57C480078B4
:1034F000FDF713FA08F0FEFD0246AFF60801E0689A
:1035000008F0E0FD6079C0060BD576480078FDF73D
:1035100004FA08F0EFFD0246AFF60001E06808F09B
:10352000D1FD607980060BD56F480088FDF7F5F96D
:1035300008F0E0FD0246AFF2F071E06808F0C2FD6D
:10354000607940060BD569480088FDF7E6F908F078
:10355000D1FD0246AFF2E471E06808F0B3FD607996
:1035600000060BD562480078FDF7D7F908F0C2FDD8
:103570000246AFF2D071E06808F0A4FDA079C00760
:103580000BD05C480078FDF7C8F908F0B3FD02469F
:10359000AFF2C871E06808F095FDA07980070BD5FF
:1035A00055480078FDF7B9F908F0A4FD0246AFF2DE
:1035B000B471E06808F086FDA07940070BD54F484C
:1035C0000078FDF7AAF908F095FD0246AFF29C716C
:1035D000E06808F077FDA07900070BD5484800782F
:1035E000FDF79BF908F086FD0246AFF28871E068AE
:1035F00008F068FDA079C0060AD542480088FDF7AA
:103600008CF908F077FD02463FA1E06808F05AFD0A
:10361000A079800608D5404808F086FD0246AFF242
:103620005C71E06808F04EFDA079400610D53B487B
:103630000068FDF772F908F05DFD0246AFF25C71BB
:10364000E06808F03FFD4FF4FA61092008F0C6FC7D
:10365000E06808F0EDFD0746024631A1314807F069
:10366000B9FE0346304800252E4A03602F480095D6
:10367000CDE901502E492F4809F013FB384608F0D8
:1036800011FEE06808F05EFDE078800712D54FF487
:10369000FA7002F0FBFD86F31388BFF34F8F2648C4
:1036A0000168264A01F4E06111430160BFF34F8FC6
:1036B00000BFFDE7E57025716571A57137B0BDE804
:1036C000F08F0000110100201201002013010020E2
:1036D00015010020300100203401002038010020B5
:1036E000AA010020AB010020AC0100209E010020B7
:1036F0009A010020B0010020B1010020B201002099
:10370000B3010020EE00002050756C73655F5468B3
:10371000726573686F6C64003462002040010020A1
:1037200025730000F87B0020E001002011A30108B0
:10373000A2020020006F00200CED00E00400FA055A
:103740007CB55E4CA168206981423DD92178002971
:103750003AD10025A5606178012914D0A169491CDE
:10376000A161032901DBA561E560E168544E1029E0
:103770007ED2DFE801F00E151A212A323A41484F75
:10378000565D646B7A8EA5616570E168491CE160E5
:10379000EBE7002002F0D4FC2069A0F2DC5060E0EE
:1037A000012002F0CDFC20695BE0CDE90060002340
:1037B00044A2194644A005E0CDE90060002341A2DF
:1037C000194643A007F0F2F87CBD4349CDE900104B
:1037D000002342A2194643A0F4E74549CDE9001071
:1037E00000231A46194643A0ECE7CDE90060002308
:1037F00034A2194642A0E5E7CDE90060002331A2DA
:10380000194642A0DEE7CDE90060002342A2194636
:1038100044A0D7E7CDE9006000232AA2194644A0BE
:10382000D0E7CDE90060002326A2194644A0C9E7ED
:10383000CDE90060002323A2194645A0C2E7CDE9E7
:10384000006000231FA2194644A0BBE7CDE9006039
:10385000002345A2194645A007F0A8F82069A0F565
:10386000FA70BDE87C4000F09FB8144B283300E0AC
:1038700017E0DA1D40A1474807F0ACFD4549E0617B
:1038800000230D54206944A2CDE900601946414847
:1038900098E74349CDE9001000231A4641491846EC
:1038A00090E70023CDE900501A461946184607F064
:1038B0007DF86570012020707CBD0000C4010020EF
:1038C000C55E01084F4B000041540D0A0000000086
:1038D000415445300D0A0000356001082B43434C2C
:1038E0004B3A000041542B43434C4B3F0D0A000020
:1038F000F15F010841542B47534E0D0A00000000B0
:1039000041542B4350494E3F0D0A000041542B4374
:1039100046554E3D310D0A002B43474154543A2041
:103920003100000041542B43474154543F0D0A00DD
:1039300041542B4349504D55583D300D0A0000006D
:1039400041542B4349504D4F44453D310D0A000031
:1039500041542B435354540D0A00000041542B434F
:10396000494943520D0A00002E00000041542B43E8
:10397000494653520D0A000041542B4349505354B9
:103980004152543D22544350222C222573222C258F
:10399000730D0A00F87B0020434F4E4E4543540000
:1039A000C55F0108195F01080349012248614A7097
:1039B00000B9886888607047C401002030B5114C98
:1039C000114D89B0A0692968884208D04FF47A71F6
:1039D000032008F003FB012020702868A061032069
:1039E00008F06CFA01280BD12078012808D128684A
:1039F0000090042269462920FEF7BCFA00202070BE
:103A000009B030BDE00000203C0100202DE9F05F4E
:103A1000A248A34F01260078A24C4FF0020842F2C0
:103A2000107B002510B101283ED046E06078DFF819
:103A300078A24FF4807920B1012817D0022831D123
:103A400021E04946504600F0D6FC012805D0494601
:103A5000504600F0D0FC38B12FE041F2883104200C
:103A600008F0BCFA667028E03D7026E0042008F0FB
:103A700025FA10B184F801801FE04946504600F055
:103A8000BAFC78B119E04946504600F0B4FC012870
:103A900005D04946504600F0AEFC10B102E03E7041
:103AA00000E03D70657008E0A078DFF8009268B132
:103AB00001281AD002281FD0A5707D48DFF8F491A4
:103AC0007D4F007820B301284ED054E0E27999F878
:103AD00000108A42F1D0A07A421CA272082802D3B8
:103AE000A5723E70A670E171E7E75946042008F020
:103AF00075FA84F80280E0E7042008F0DFF908B1E5
:103B0000A570B1E799F800000128D6D1A670D4E7D6
:103B1000E07820B1012811D0022823D118E03878AC
:103B2000012801D038B126E041F28831052008F0A3
:103B300055FAE6701FE089F800501CE0052008F0F7
:103B4000BDF910B184F8038015E0387850B112E067
:103B50003878012801D018B104E089F8006001E04C
:103B600089F80050E57006E0207918B3012830D0BC
:103B7000022836D025715148524F0178504879B308
:103B8000012961D0022913D14F490A8813060FD5A4
:103B90004E4B92061B8803EB92224FF47A73B2FBD2
:103BA000F3F2E3899A4202D30268521C02600D804C
:103BB000BDE8F09F207A39788842DCD0E07A421C58
:103BC000E272082803D3E57289F800602671217239
:103BD000D1E75946052008F001FA84F80480CAE7C5
:103BE0000AE0052008F06AF908B12571A3E73878E2
:103BF0000128C0D12671BEE7617931B101290ED00B
:103C0000022913D003291DD119E038780128CFD11A
:103C100041F28831062008F0E1F96671C8E7062014
:103C200008F04CF958B184F80580C1E739780129CA
:103C300002D10168491C016003206071B8E738783F
:103C40000028B5D16571B3E7A17921B1012912D05E
:103C500002291BD116E0617A3A789142A8D0217BE3
:103C60004B1C2373082904D325730168491C016088
:103C7000A67162729CE75946062008F0AFF984F8F5
:103C8000068095E7062008F019F908B1A5718FE7BD
:103C9000387801288CD1A6718AE700001301002032
:103CA0000E010020E0000020000801406A01002011
:103CB000120100200D0100206B01002011010020E5
:103CC0003C0100206C0100200000002002000020C8
:103CD00030B591B000225C495C4803F0D9FC002269
:103CE0005B495A4803F0ADFC574884784378027822
:103CF000574881788DE81E00C278437855A104A802
:103D000002F5FA6207F066FB08F006FA594CA0616A
:103D100004A808F009FA024657A1A06908F0D2F9F0
:103D20006078FCF7FAFD08F0E5F9024655A1A069B4
:103D300008F0C8F9564857A1027804A807F04AFBD2
:103D400004A808F0F1F9024653A1A06908F0BAF9F5
:103D5000544850A1027804A807F03CFB04A808F0DE
:103D6000E3F9024650A1A06908F0ACF9514849A115
:103D7000026804A807F02EFB04A808F0D5F9024653
:103D80004DA1A06908F09EF950480088FCF7C5FDD8
:103D900008F0B0F902464EA1A06908F093F94E4828
:103DA0000068FCF7FFFD08F0A5F902464BA1A069E9
:103DB00008F088F94C480068FCF7F4FD08F09AF91F
:103DC00002464AA1A06908F07DF94C480088FCF73A
:103DD000A4FD08F08FF9024649A1A06908F072F924
:103DE00049480068FCF7DEFD08F084F9024647A167
:103DF000A06908F067F948480068FCF7D3FD08F0AF
:103E000079F9024645A1A06908F05CF9A06908F0BB
:103E10000FFA0546024645A1454807F0DBFA454939
:103E2000454A0346086000210091CDE90112404A4D
:103E30004249434808F035FF284608F033FAA069A4
:103E400008F080F911B030BD2B00002008040020DC
:103E50002E000020253034642D253032642D25308D
:103E6000326420253032643A253032643A253032CB
:103E700064000000700100204C6F63616C5F546946
:103E80006D650000446174615F54797065000000E5
:103E90000D01002025640000475245454E5F5661E4
:103EA0006C7565000E0100205245445F56616C75CB
:103EB000650000003C01002054494D315F434150F2
:103EC000545552455F56414C310000000800002017
:103ED00061646331000000001C0100204144315F37
:103EE0004556616C75650000240100204144315F36
:103EF00050687956616C7565000000000A0000206A
:103F00006164633200000000200100204144325F00
:103F10004556616C75650000280100204144325F00
:103F200050687956616C75650000000025730000CB
:103F3000F87B0020E001002011A30108A20200206C
:103F4000006F002030B591B000223B493B4803F0A0
:103F50009FFB00223A49394803F073FB36488478C6
:103F600043780278364881788DE81E00C27843781D
:103F700034A104A802F5FA6207F02CFA08F0CCF894
:103F8000384C206204A808F0CFF8024636A1206A17
:103F900008F098F82078FCF7C0FC08F0ABF802466F
:103FA00034A1206A08F08EF8354836A1027804A8BA
:103FB00007F010FA04A808F0B7F8024632A1206A08
:103FC00008F080F833482FA1027804A807F002FA1D
:103FD00004A808F0A9F802462FA1206A08F072F898
:103FE000304828A1026804A807F0F4F904A808F0F2
:103FF0009BF802462CA1206A08F064F8206A08F0B9
:1040000017F9054602462DA12D4807F0E3F92D4981
:1040100003462B4A08602C4900200090CDE901019D
:104020002A492B4808F03DFE284608F03BF9206A53
:1040300008F088F811B030BD2B00002008040020E3
:104040002E000020253034642D253032642D25309B
:10405000326420253032643A253032643A253032D9
:1040600064000000700100204C6F63616C5F546954
:104070006D650000446174615F54797065000000F3
:104080000D01002025640000475245454E5F5661F2
:104090006C7565000E0100205245445F56616C75D9
:1040A000650000003C01002054494D315F43415000
:1040B000545552455F56414C3100000025730000B5
:1040C000F87B0020E001002011A30108A2020020DB
:1040D000006F00200FB4F0B59BB008F01DF83D4C08
:1040E0003D4E3EA1A0639DF881209DF880500DA813
:1040F00002B307F06FF9012D04D0022D06D0032D75
:1041000013D055E0327836A1684603E0327834A106
:104110006846521C07F05EF90DA808F005F8024643
:104120006946A06B07F0CEFF42E032782CA16846CA
:10413000921CEFE707F04EF9012D04D0022D06D0B6
:10414000032D17D011E0327825A1684603E03278BC
:1041500023A16846521C07F03DF90DA807F0E4FFC3
:1041600002466946A06B07F0ADFF1F4820AF1F4E07
:1041700005781AE032781AA16846921CEBE72A46C5
:104180001BA10DA807F026F907EB450018A14288EE
:10419000684607F01FF9684607F0C6FF02460DA9FA
:1041A000A06B07F08FFF6D1CEDB230888542E6D31F
:1041B000A06B08F03DF8054601460FA007F0FAF89D
:1041C000284608F06FF8A06B07F0BCFF1BB0F0BCEE
:1041D0005DF814FB0C010020AB01002025640000F9
:1041E000536C617665256400AC0100209E010020BF
:1041F000253034640000000025730D0A0000000023
:104200000FB4F0B59FB000225A495B4803F040FA62
:1042100000225A49584803F014FA564884784378E3
:104220000278564881788DE81E00C278437854A100
:1042300011A802F5FA6207F0CDF807F06DFF584CAF
:10424000E06111A807F070FF024656A1E06907F08F
:1042500039FFA078FCF761FB07F04CFF024654A140
:10426000E06907F02FFF9DF89120544E9DF8905083
:1042700053A111A802B307F0ADF8012D04D0022D0F
:1042800006D0032D13D055E032784EA104A803E0E8
:1042900032784CA104A8521C07F09CF811A807F032
:1042A00043FF024604A9E06907F00CFF42E03278C0
:1042B00044A104A8921CEFE707F08CF8012D04D06C
:1042C000022D06D0032D17D011E032783DA104A8AD
:1042D00003E032783BA104A8521C07F07BF811A838
:1042E00007F022FF024604A9E06907F0EBFE374819
:1042F00024AF374E05781AE0327832A104A8921C18
:10430000EBE72A4633A111A807F064F807EB450054
:1043100030A1428804A807F05DF804A807F004FF64
:10432000024611A9E06907F0CDFE6D1CEDB23088A0
:104330008542E6D3E06907F07BFF0546024627A1E8
:10434000274807F047F82749274A03460860002115
:104350000091CDE90112224A2449254808F0A1FC28
:10436000284607F09FFFE06907F0ECFE1FB0F0BCA5
:104370005DF814FB2B000020080400202E00002014
:10438000253034642D253032642D253032642025CB
:104390003032643A253032643A253032640000000D
:1043A000700100204C6F63616C5F54696D650000A3
:1043B000446174615F54797065000000AB010020B6
:1043C00025640000536C617665256400AC01002013
:1043D0009E01002025303464000000002573000099
:1043E000F87B0020E001002011A30108A2020020B8
:1043F000006F002070478068084000D0012070479F
:104400004D54494F5F434F554E540000000000008B
:10441000000000000000000000000000000000009C
:10442000000000000000000000000000000000008C
:10443000000000002DE9F04FFE4CDFF8FC83FF4E3A
:10444000207B0027DFF8F8A3DFF8F8B3E5B00128F8
:104450007ED100224146FC4803F01AF90022314681
:10446000F94803F0EEF898F8022098F8011098F84F
:104470000000B378CDE90030CDE90212F27873780C
:10448000F2A125A802F5FA6206F0A4FF07F044FEA7
:10449000E06304F1400007F047FE0246F3A1E06B41
:1044A00007F010FE25A807F03FFE0246F2A1E06BE0
:1044B00007F008FEE078FCF730FA07F01BFE024632
:1044C000F0A1E06B07F0FEFD2079FCF726FA07F07B
:1044D00011FE0246EEA1E06B07F0F4FD2079022800
:1044E00009D1E089FCF719FA07F004FE0246EBA1B6
:1044F000E06B07F0E7FD6079FCF70FFA07F0FAFDD3
:104500000246E9A1E06B07F0DDFDA079FCF705FAB2
:1045100007F0F0FD0246E7A1E06B07F0D3FDE0797C
:10452000FCF7FBF907F0E6FD0246E5A1E06B07F0BA
:10453000C9FD207AF0B1FCF7F0F907F0DBFD024687
:10454000E1A1E06B07F0BEFD206AFCF72BFA00E06A
:10455000AFE007F0CFFD0246DEA1E06B07F0B2FD51
:10456000606AFCF71FFA07F0C5FD0246DDA1E06BAB
:1045700007F0A8FD607AE0B1FCF7CFF907F0BAFDCB
:104580000246DCA1E06B07F09DFDA06AFCF70AFA89
:1045900007F0B0FD0246DAA1E06B07F093FDE06A98
:1045A000FCF700FA07F0A6FD0246D9A1E06B07F080
:1045B00089FDE078002862D09AF80000FCF7ADF998
:1045C00007F098FD0246D6A1E06B07F07BFDD748C7
:1045D0000078FCF7A2F907F08DFD0246D4A1E06B4C
:1045E00007F070FDD5480088FCF797F907F082FDC9
:1045F0000246D3A1E06B07F065FDD4480088FCF7C4
:104600008CF907F077FD0246D1A1E06B07F05AFD67
:10461000D3480078FCF781F907F06CFD0246D1A180
:10462000E06B07F04FFDD2480078FCF776F907F011
:1046300061FD0246CFA1E06B07F044FDD148007850
:10464000FCF76BF907F056FD0246CFA1E06B07F0CF
:1046500039FDD2480078FCF760F907F04BFD0246BF
:10466000CFA1E06B07F02EFD9BF80000FCF755F999
:1046700007F040FD0246CEA1E06B07F023FDD048D5
:104680000088FCF74AF907F035FD0246CDA1E06B42
:1046900007F018FDE06B07F0CBFD05460146CDA005
:1046A00006F088FE284607F0FDFDE06B07F04AFDA6
:1046B0002773022007F002FC0125002804D020788F
:1046C000022802D001287CD0ACE000225A495E4882
:1046D00002F0DEFF002259495B4802F0B2FF98F871
:1046E000022098F8011098F80000B378CDE9003066
:1046F000CDE90212F278737854A125A802F5FA6286
:1047000006F068FE07F008FDE06325A807F00CFD41
:10471000024659A1E06B07F0D5FC6278AFA125A84D
:1047200006F058FE25A807F0FFFC0246ACA1E06B9E
:1047300007F0C8FCA278A9A125A806F04BFE25A881
:1047400007F0F2FC0246A9A1E06B07F0BBFCA3A1B5
:1047500025A8226B06F03EFE25A807F0E5FC0246E0
:10476000A5A1E06B07F0AEFC207AF0B1A748008865
:10477000FCF7D3F807F0BEFC0246A5A1E06B07F0FA
:10478000A1FC2069FCF70EF907F0B4FC0246A2A1D7
:10479000E06B07F097FCA069FCF704F907F0AAFCAE
:1047A0000246A0A1E06B07F08DFC607A00B3A1483F
:1047B0000088FCF7B2F807F09DFC02469EA1E06B72
:1047C00000E024E007F07EFC6069FCF7EBF807F0FE
:1047D00091FC02469AA1E06B07F074FCE069FCF7DB
:1047E000E1F807F087FC024698A1E06B07F06AFC4D
:1047F000E06B07F01DFD0646014676A006F0DAFDE7
:10480000304607F04FFDE06B07F09CFC0AE0E278D1
:10481000012A0DD091A125A806F0DCFD25A96DA0E7
:1048200006F0C8FDA17A92480590012901D021E146
:1048300062E123E10C0100202B0000202E0000206B
:10484000AA010020B30100200804002025303464B0
:104850002D253032642D2530326420253032643AE3
:10486000253032643A253032640000005665727398
:10487000696F6E5F4E756D004C6F63616C5F54695C
:104880006D65000052533438355F5479706500000F
:10489000434E435F5570547970650000434E435F4B
:1048A000557054696D650000434E435F59454C4C4B
:1048B0004F570000434E435F475245454E000000AE
:1048C000434E435F524544004144315F5479706523
:1048D000000000004144315F50687956616C756595
:1048E000310000004144315F50687956616C756554
:1048F000320000004144325F5479706500000000CE
:104900004144325F50687956616C75653100000032
:104910004144325F50687956616C75653200000021
:10492000536C6176655F4E756D000000AB01002031
:104930004D61737465725F4144445200AC010020C4
:104940005374617274416464720000009E0100201F
:1049500056616C75654F724C656E7468000000009E
:104960009A010020536C6176655F41444452000017
:10497000B00100204D6F64627573426175645261CD
:1049800074650000B10100204D6F64627573576F4C
:1049900072644C656E67746800000000B20100200C
:1049A0004D6F6462757353746F7042697473000065
:1049B0004D6F646275735061726974790000000014
:1049C000EE00002050756C73655F496E74657276F9
:1049D000616C000025730D0A0000000025640000D2
:1049E000475245454E5F56616C7565005245445FC0
:1049F00056616C756500000054494D315F4341506C
:104A0000545552455F56414C3100000008000020CB
:104A100061646331000000004144315F4556616CC0
:104A2000756500004144315F50687956616C756569
:104A3000000000000A0000206164633200000000F2
:104A40004144325F4556616C756500004144325FF8
:104A500050687956616C75650000000044657669A0
:104A600063653438355F747970653D2564000000F6
:104A700026660020092007F021FA78B104F03EFAFA
:104A8000059804F077FB606B04F04EFB04F05AFBD2
:104A900004F084FAA772092007F0D4FADFF8BC9377
:104AA000B9F80000000479D5ED480178E12958D023
:104AB00000214278E22A56D0002211408278E32A6F
:104AC00053D000221140C2781E2A50D00022007913
:104AD00011402E284DD0002001424CD001216420ED
:104AE000FDF759FAB9F800004C46C0F30D01DC4857
:104AF000FBF7B5FB2780A7E0E07A012804D0022865
:104B00000BD0032812D021E06A22D6496846FBF771
:104B10008DFBD4497A22103910E06A22D2496846C6
:104B2000FBF784FBD0497A22103907E06A22CF498B
:104B30006846FBF77BFBCD497A22103932A8FBF798
:104B400075FB32AE96E80F00FFF7C4FAE07A411C1D
:104B5000E1729AF80010491E88427FF7B5ADE57200
:104B600060E60121A5E70122A7E70122AAE70122C9
:104B7000ADE70120B0E7BEA1B948FBF77BFB0028F9
:104B80004FD00DF1040862AE60AB5EAA5CA988E864
:104B90004E0059A91BAB20AA009100E0FEE3B6A18C
:104BA000FBF7B0FB1BA8FBF739FCBE4EA0F5FA6083
:104BB000F07059A8FBF732FC70705CA8FBF72EFC74
:104BC000B0705EA8FBF72AFCDFF8DC8288F80000F2
:104BD00060A8FBF723FC88F8010062A8FBF71EFC25
:104BE00088F8020000224146B04802F093FE0022FD
:104BF0003146AE4802F02CFEADA1AFF2282006F0FF
:104C0000D9FB98F8000098F8022098F801108DE878
:104C10000700F178B3787278A9A001F5FA6106F07F
:104C2000C9FBB3A18E48FBF725FB88B1B9F800009A
:104C30004C46C0F30D018A48FBF711FB2780AEA15B
:104C4000AFF2702006F0B6FB85F3138805F04EFB3B
:104C5000ADA18348FBF70EFB60B11BAB20AAADA151
:104C6000FBF750FB1BA8FBF7D9FBC1B22170ACA02E
:104C700006F0A0FBB3A17A48FBF7FCFA20B125733C
:104C8000B4A1B9A006F096FBB9A17548FBF7F2FAFA
:104C900020B12770B9A1B4A006F08CFBBCA170486C
:104CA000FBF7E8FA48B1BEA1AFF2D82006F082FBCC
:104CB000FF210020FDF76FF9B8E7BDA16848FBF7B9
:104CC000D9FA60B11BAB20AA92A1FBF71BFB1BA872
:104CD000FBF7A4FB01462063B8A006F06BFBAFF224
:104CE00050415F48FBF7C6FA4FF0020830B31BABE8
:104CF00020AA88A1FBF706FB1BA8FBF78FFBC0B21D
:104D00002071022802D384F8048008E0012802D030
:104D1000022804D00AE0012007F094F906E0E189B6
:104D20004FF47A704143012007F024F921792320C0
:104D3000FDF731F92179A7A006F03CFBAFF2A441C1
:104D40004748FBF797FA00B31BAB20AA71A1FBF70A
:104D5000D9FA1BA8FBF762FB80B2E081052801D2DB
:104D60000520E08180B2ADF84401022251A924203F
:104D7000FDF700F9E1894FF47A704143012007F013
:104D8000F9F8E1899FA006F015FBAFF2E441344841
:104D9000FBF770FAB0B11BAB20AA5EA1FBF7B2FA29
:104DA0001BA8FBF73BFBC0B26071022802D3404650
:104DB00084F80580C1B22620FDF7EDF8617996A050
:104DC00006F0F8FAAFF214512548FBF753FAA0B1F8
:104DD0001BAB20AA4FA1FBF795FA1BA8FBF71EFB04
:104DE00010F0FF00A07100D0A571A1792720FDF778
:104DF000D2F8A17995A006F0DDFAAFF23C5118483F
:104E0000FBF738FAA0B11BAB20AA42A1FBF77AFA54
:104E10001BA8FBF703FB10F0FF00E07100D0E57169
:104E2000E1792820FDF7B7F8E17992A006F0C2FAFF
:104E300099A10B48FBF71EFA70B11BAB20AA35A154
:104E4000FBF760FA1BA8FBF7E9FAC1B2E170052095
:104E5000FDF7A1F8E17825E127E100003600002008
:104E6000A805002030520020AA5200202453002020
:104E70005345545F52544300255B5E3D5D3D255BC9
:104E80005E2D5D2D255B5E2D5D2D255B5E205D20FD
:104E9000255B5E3A5D3A255B5E3A5D3A255B5E3A9C
:104EA0005D000000240000202800002008040020ED
:104EB000CAB1D6D3C9E8D6C3B2CECAFD3A00000003
:104EC000C4EAD4C2C8D5CAB1B7D6C3EB3A25303488
:104ED000642D253032642D25303264202530326433
:104EE0003A253032643A253032640D0A0000000061
:104EF0005265737461727400B5C8B4FDCFB5CDB39B
:104F0000B8B4CEBB210000005072696E745F4F4E82
:104F100000000000255B5E3D5D3D25730000000044
:104F20005072696E745F4F4E3A256420313A3438BE
:104F300035CAFDBEDD20323ABCC6CAFDCAFDBEDDA3
:104F40000D0A00005072696E745F436F6E66696788
:104F500000000000CFB5CDB3C5E4D6C3D0C5CFA205
:104F6000B4F2D3A1210000000D0A25730D0A000040
:104F70005072696E745F4F4646000000CFB5CDB3E6
:104F8000B4F2D3A1D0C5CFA253746F70210000003A
:104F9000466F726D61745F4545524F4D00000000D1
:104FA0004545524F4DB8F1CABDBBAF2100000000CE
:104FB000434E435F494E554D0000000054494D3368
:104FC0005F434150545552455F56414C313D256435
:104FD0000D0A0000434E435F5570547970653D25BE
:104FE0006420303AB2BBC9CFB1A820313AB1E4BB9A
:104FF000AFC9CFB1A820323AB6A8CAB1C9CFB1A8BB
:105000000D0A0000434E435F557054696D653D25A0
:1050100064C3EB0D0A000000434E435F59656C6C9E
:105020006F773D256420303AB3A3C1C1BDE1CAF812
:1050300020313AC9C1CBB8BDE1CAF82020323AC20A
:10504000F6B3E5BCC6CAFD0D0A000000434E435F3F
:10505000475245454E3D256420303AB3A3C1C1D4E3
:10506000CBD0D020313AC9C1CBB8D4CBD0D00D0AE7
:1050700000000000434E435F5245443D256420300C
:105080003AB3A3C1C1B9CAD5CF20313AC9C1CBB84F
:10509000B9CAD5CF0D0A000052533438355479704F
:1050A00065000000E7A006F085F9F6A1F748FBF7D8
:1050B000E1F8D8B11BAB20AAAFF2A811FBF722F997
:1050C0001BA8FBF7ABF910F0FF0FF14805D0012248
:1050D000402101F017FBEFA104E00022402101F084
:1050E00011FBEFA1AFF2147006F064F9EFA1E748ED
:1050F000FBF7C0F8D8B11BAB20AAAFF2E811FBF761
:1051000001F91BA8FBF78AF910F0FF0FE9484FF4EB
:10511000004104D0012201F0F5FAE7A103E00022EA
:1051200001F0F0FAE7A1AFF2547006F043F9AFF6E0
:105130006801D648FBF79EF888B11BAB20AAAFF2F6
:105140002C21FBF7DFF81BA8FBF768F9C1B221722D
:105150002120FCF720FF217ADD4806F02BF9AFF67D
:105160006C01CA48FBF786F888B11BAB20AAAFF2E6
:105170005C21FBF7C7F81BA8FBF750F9C1B26172BD
:105180002220FCF708FF617AD24806F013F9AFF647
:10519000BC01BE48FBF76EF8C8B11BAB20AAAFF24A
:1051A0008C21FBF7AFF81BA806F072FEFBF73EFC64
:1051B00020625190042251A90620FCF7DBFE206AF0
:1051C000FBF7F0FB02460B46C3A006F0F3F8AFF680
:1051D000EC01AE48FBF74EF8C8B11BAB20AAAFF20A
:1051E000CC21FBF78FF81BA806F052FEFBF71EFC44
:1051F00060625190042251A90A20FCF7BBFE606A4C
:10520000FBF7D0FB02460B46B8A006F0D3F8AFF68A
:1052100010119E48FBF72EF8C8B11BAB20AAAFF2C5
:105220000C31FBF76FF81BA806F032FEFBF7FEFB14
:10523000A0625190042251A90E20FCF79BFEA06AA7
:10524000FBF7B0FB02460B46ADA006F0B3F8AFF695
:1052500040118E48FBF70EF8C8B11BAB20AAAFF285
:105260004C31FBF74FF81BA806F012FEFBF7DEFBF4
:10527000E0625190042251A91220FCF77BFEE06A03
:10528000FBF790FB02460B46A2A006F093F8AFF6A0
:1052900070117E48FAF7EEFFD8B11BAB20AAAFF22F
:1052A0008C31FBF72FF81BA8FBF7B8F8C0B25646B5
:1052B0008AF80000032802D90320307001E000B909
:1052C000357031781620FCF766FE317896A006F02E
:1052D00071F8AFF6A4116D48FAF7CCFFB0B11BAB73
:1052E00020AAAFF2D031FBF70DF81BA8FBF796F818
:1052F000914E10F0FF00307000D1357031781720DA
:10530000FCF749FE31788DA006F054F8AFF6D011C5
:105310005E48FAF7AFFFB0B11BAB20AAAFF20C4169
:10532000FAF7F0FF1BA8FBF779F8894E022251A982
:10533000308080B2ADF844011820FCF71BFE3188A4
:1053400084A006F037F8AFF6F8115048FAF792FF4C
:10535000D8B11BAB20AAAFF24441FAF7D3FF1BA888
:10536000FBF75CF8804E80B21428308001D91420FD
:1053700030803088ADF84401022251A91A20FCF790
:10538000F9FD318879A006F015F8AFF628213F48DD
:10539000FAF770FFC0B11BAB20AA00E0C3E1AFF287
:1053A0008C41FAF7AFFF1BA8FBF738F8744E10F0EA
:1053B000FF00307000D1357031781C20FCF7EBFD18
:1053C000317870A005F0F6FFAFF658212F48FAF7B4
:1053D00051FF4FF0080AC8B11BAB20AAAFF2CC4175
:1053E000FAF790FF1BA8FBF719F86A4E10F0FF00C0
:1053F000307024D0082801D986F800A031781D200B
:10540000FCF7C9FD317864A005F0D4FFAFF6882120
:105410001E48FAF72FFF88B11BAB20AAAFF20C5140
:10542000FAF770FF1BA8FAF7F9FF604EC0B2082820
:10543000307005D2504686F800A0BFE0C6E0B7E065
:10544000B8E000005253343835CAFDBEDDC0E0D0AC
:10545000CDCEAA3A256420303ACEDE20313A4D4FE7
:1054600044425553D6F7D5BE20323A4D4F444255AB
:1054700053B4D3D5BE20333AD7D4D3C9D0ADD2E9B3
:105480000D0A00004F55543100000000A80500200F
:10549000001001404F5554315F4F4E210000000075
:1054A0004F5554315F4F4646210000004F5554324E
:1054B00000000000000C01404F5554325F4F4E2158
:1054C000000000004F5554325F4F46462100000057
:1054D00030F601087CF601084144315F5068795686
:1054E000616C7565313D25660D0A00004144315FF0
:1054F00050687956616C7565323D25660D0A00006D
:105500004144325F50687956616C7565313D25665E
:105510000D0A00004144325F50687956616C756530
:10552000323D25660D0A0000536C6176655F4E754D
:105530006D3D25640D0A0000AB0100204D617374C0
:1055400065725F414444523D25640D0A000000002D
:10555000AC0100205374617274416464723D253063
:1055600034780D0A000000009E01002056616C7521
:10557000654F724C656E74683D253034780D0A00B5
:105580009A010020536C6176655F414444523D2589
:10559000640D0A00B00100204D6F646275734261B2
:1055A0007564526174653D25640D0A00B1010020E7
:1055B000357023E7092801D909203070C1B21E20B7
:1055C000FCF7E9FC31785CA005F0F4FEAFF6304161
:1055D0005F48FAF74FFEC8B11BAB20AAAFF2CC610F
:1055E000FAF790FE1BA8FAF719FF5A4E10F0FF00C9
:1055F000307078D0022801D986F8008031781F20D9
:10560000FCF7C9FC317854A005F0D4FEAFF6604138
:105610004F48FAF72FFED0B11BAB20AAAFF20C71A6
:10562000FAF770FE1BA8FAF7F9FE10F0FF005E46CD
:105630008BF800007DD0032801D903203070317829
:105640002020FCF7A8FC317848A005F0B3FEAFF6A7
:105650008C413F48FAF70EFEE8B11BAB20AAAFF22F
:105660004C71FAF74FFE1BA8FAF7D8FE444D80B2F2
:10567000B0F57A6F288002D949F640402880288802
:10568000ADF84401022251A92D20FCF773FC2988B2
:105690003CA005F08FFE40A12D48FAF7EBFD88B144
:1056A0003EA1FAF7E7FD68B13D4A3EA1401CFAF77A
:1056B00029FE3B4A3BA1059805F08CFE38493AA0EB
:1056C00005F078FE3BA12248FAF7D4FD78B11BAB78
:1056D00020AAAFF2C071FAF715FE1BA8FAF79EFEDA
:1056E0000146606300E022E035A005F063FE38A1CA
:1056F0001748FAF7BFFD68B11BAB20AAAFF2EC71F7
:10570000FAF700FE1BA8FAF789FEC1B2A17232A017
:1057100005F050FEB9F800004C46C0F30D010C48EE
:10572000FAF79DFD278065B0BDE8F08F01E0357088
:1057300064E7357083E700004D6F64627573576FDF
:1057400072644C656E6774683D25640D0A00000044
:10575000A8050020B20100204D6F64627573537478
:105760006F70426974733D25640D0A004D6F646269
:1057700075735061726974793D25640D0A000000EB
:10578000EE00002050756C73655F496E746572762B
:10579000616C3D25640D0A0055524C003D0000002F
:1057A000346200202573000055524C3A25730D0ACF
:1057B0000000000046696C6553697A6500000000CE
:1057C00046696C6553697A653A25640D0A000000E4
:1057D0005570646174650000557064617465466C51
:1057E0006167653A25640D0A000000002DE9F04369
:1057F0004D48BBB00078002868D04D4C4B484D4D0B
:10580000DFF834914D4E90F8008094F808C02F785E
:10581000637A99F80020616A3068B8F1020F03D00A
:10582000B8F1010F5FD06DE0BC4503D1934201D1C7
:10583000814208D0FEF786FB2878207299F8000094
:105840006072306860623E480078E8B3012802D098
:10585000022841D056E0012006F030FBA8B3A07A20
:1058600030B1012807D002280ED0032815D024E03B
:10587000FEF72EFA21E06A2232496846FAF7D6FC92
:1058800030497A22103910E06A222F496846FAF727
:10589000CDFC2D497A22103907E06A222B4968464F
:1058A000FAF7C4FC29497A2210391BA8FAF7BEFC82
:1058B0001BAD95E80F00FEF7A3FCA07A411CA17276
:1058C00023490978491E02E006E004E029E0884205
:1058D00018DD0020A07215E0012006F0EFFA88B173
:1058E000FEF7F6F90EE0BC4503D1934201D18142A7
:1058F00008D0FEF727FB2878207299F80000607224
:10590000306860621348017831B9417821B98078F4
:105910000F2801D104F0C0FC3BB0BDE8F04303F018
:1059200031BC3BB0BDE8F083C40100201001002071
:10593000700100200D0100200E0100203C0100201C
:105940000F01002030520020AA52002024530020D2
:10595000AA0100202B0000202DE9F04F89B0002083
:10596000FCF704FBF34DF44EF44FF54CDFF8D48311
:10597000DFF8D493DFF8D4A3DFF8D4B355287DD073
:1059800055210020FCF707FB29782120FCF703FBB9
:1059900031782220FCF7FFFA39780520FCF7FBFA72
:1059A00021782320FCF7F7FAEA4D24202978FCF728
:1059B000F2FA98F800102620FCF7EDFA99F800109A
:1059C0002720FCF7E8FA9AF800102820FCF7E3FA01
:1059D000DBF800000090042269462920FCF7CAFA8F
:1059E000DD4E04226946306800900620FCF7C2FABA
:1059F000DA4F04226946386800900A20FCF7BAFAA8
:105A0000DFF85C8304226946D8F8000000900E207D
:105A1000FCF7B0FADFF84C9304226946D9F800008D
:105A200000901220FCF7A6FA2888ADF800000222A8
:105A300069462420FCF79EFADFF82CA316209AF87A
:105A40000010FCF7A8FADFF824B317209BF8001029
:105A5000FCF7A1FAC648022269460088ADF80000AA
:105A60001820FCF787FAC348022269460088ADF87F
:105A700000001A20FCF77EFABF4800E0C0E0017881
:105A80001C20FCF788FABD4801781D20FCF783FA3A
:105A9000BB4801781E20FCF77EFABA4801781F2027
:105AA000FCF779FAB84801782020FCF774FAB74877
:105AB000022269460088ADF800002D20FCF75AFA52
:105AC0002120FCF753FA9B4908702220FCF74EFA7C
:105AD000994908700520FCF749FA98490870232075
